{"contracts/EnhancedConsorcioManager.sol":{"EnhancedConsorcioManager":{"abi":[{"anonymous":false,"inputs":[{"indexed":true,"internalType":"uint256","name":"consorcioId","type":"uint256"},{"indexed":false,"internalType":"address","name":"consorcioAddress","type":"address"}],"name":"ConsorcioCreated","type":"event"},{"anonymous":false,"inputs":[{"indexed":true,"internalType":"uint256","name":"consorcioId","type":"uint256"},{"indexed":false,"internalType":"address","name":"participant","type":"address"},{"indexed":false,"internalType":"uint256","name":"amount","type":"uint256"}],"name":"ContributionMade","type":"event"},{"anonymous":false,"inputs":[{"indexed":true,"internalType":"uint256","name":"consorcioId","type":"uint256"},{"indexed":false,"internalType":"address","name":"recipient","type":"address"},{"indexed":false,"internalType":"uint256","name":"amount","type":"uint256"}],"name":"FundsDistributed","type":"event"},{"anonymous":false,"inputs":[{"indexed":true,"internalType":"uint256","name":"consorcioId","type":"uint256"},{"indexed":false,"internalType":"address","name":"participant","type":"address"}],"name":"ParticipantDefaulted","type":"event"},{"anonymous":false,"inputs":[{"indexed":true,"internalType":"uint256","name":"consorcioId","type":"uint256"},{"indexed":false,"internalType":"address","name":"participant","type":"address"}],"name":"ParticipantJoined","type":"event"},{"anonymous":false,"inputs":[{"indexed":true,"internalType":"uint256","name":"consorcioId","type":"uint256"},{"indexed":false,"internalType":"address","name":"recipient","type":"address"}],"name":"RecipientSelected","type":"event"},{"inputs":[],"name":"consorcioCount","outputs":[{"internalType":"uint256","name":"","type":"uint256"}],"stateMutability":"view","type":"function"},{"inputs":[{"internalType":"uint256","name":"","type":"uint256"}],"name":"consorcios","outputs":[{"internalType":"address","name":"","type":"address"}],"stateMutability":"view","type":"function"},{"inputs":[{"internalType":"uint256","name":"consorcioId","type":"uint256"}],"name":"contributeToConsorcio","outputs":[],"stateMutability":"payable","type":"function"},{"inputs":[{"internalType":"uint256","name":"duration","type":"uint256"},{"internalType":"uint256","name":"contributionAmount","type":"uint256"},{"internalType":"uint256","name":"participantCount","type":"uint256"}],"name":"createConsorcio","outputs":[],"stateMutability":"nonpayable","type":"function"},{"inputs":[{"internalType":"uint256","name":"consorcioId","type":"uint256"},{"internalType":"address","name":"participant","type":"address"}],"name":"defaultParticipant","outputs":[],"stateMutability":"nonpayable","type":"function"},{"inputs":[{"internalType":"uint256","name":"consorcioId","type":"uint256"}],"name":"distributeFunds","outputs":[],"stateMutability":"nonpayable","type":"function"},{"inputs":[{"internalType":"uint256","name":"consorcioId","type":"uint256"}],"name":"getConsorcioDetails","outputs":[{"internalType":"address","name":"","type":"address"}],"stateMutability":"view","type":"function"},{"inputs":[{"internalType":"uint256","name":"consorcioId","type":"uint256"}],"name":"joinConsorcio","outputs":[],"stateMutability":"nonpayable","type":"function"},{"inputs":[{"internalType":"uint256","name":"consorcioId","type":"uint256"}],"name":"selectRecipient","outputs":[],"stateMutability":"nonpayable","type":"function"}],"evm":{"bytecode":{"linkReferences":{},"object":"608060405234801561001057600080fd5b50611564806100206000396000f3fe6080604052600436106100865760003560e01c8063634cf6d511610059578063634cf6d514610133578063896d465714610153578063bd15f9d414610173578063e667439914610197578063f726f715146101cd57600080fd5b80632a3545601461008b578063325b9aa0146100ad5780634019c2f11461010057806342784b2b14610113575b600080fd5b34801561009757600080fd5b506100ab6100a63660046107e2565b6101ed565b005b3480156100b957600080fd5b506100e36100c83660046107e2565b6000908152602081905260409020546001600160a01b031690565b6040516001600160a01b0390911681526020015b60405180910390f35b6100ab61010e3660046107e2565b610290565b34801561011f57600080fd5b506100ab61012e366004610813565b61032f565b34801561013f57600080fd5b506100ab61014e366004610843565b6103de565b34801561015f57600080fd5b506100ab61016e3660046107e2565b6104af565b34801561017f57600080fd5b5061018960015481565b6040519081526020016100f7565b3480156101a357600080fd5b506100e36101b23660046107e2565b6000602081905290815260409020546001600160a01b031681565b3480156101d957600080fd5b506100ab6101e83660046107e2565b61063b565b6000818152602081905260409081902054905163051ffcd960e31b81523360048201526001600160a01b03909116906328ffe6c890602401600060405180830381600087803b15801561023f57600080fd5b505af1158015610253573d6000803e3d6000fd5b50506040513381528392507f7dd8cb04159701bc1976c246434d7d96812782e7489e6c5c34db49a388fe9e8091506020015b60405180910390a250565b600081815260208190526040808220548151636bddccdd60e11b815291516001600160a01b039091169263d7bb99ba9234926004808301939282900301818588803b1580156102de57600080fd5b505af11580156102f2573d6000803e3d6000fd5b5050604080513381523460208201528594507f0a4a91237423e0a1766a761c7cb029311d8b95d6b1b81db1b949a70c98b4e08e9350019050610285565b600082815260208190526040908190205490516368ae0d8560e01b81526001600160a01b038381166004830152909116906368ae0d8590602401600060405180830381600087803b15801561038357600080fd5b505af1158015610397573d6000803e3d6000fd5b50506040516001600160a01b03841681528492507fe140124f017b7ec0e2872db65721977f1b797d5e791f3bf52de0e369d6df2c0891506020015b60405180910390a25050565b6000838383336040516103f0906107d5565b938452602084019290925260408301526001600160a01b03166060820152608001604051809103906000f08015801561042d573d6000803e3d6000fd5b50600180546000908152602081815260409182902080546001600160a01b0319166001600160a01b03861690811790915592549151928352929350917fa73b551d9bfeb14727f63ef274d936883e7af2425e52209b279c34b1a0c475c1910160405180910390a2600180549060006104a483610885565b919050555050505050565b60008181526020819052604080822054815163691b918f60e01b815291516001600160a01b039091169263691b918f926004808201939182900301818387803b1580156104fb57600080fd5b505af115801561050f573d6000803e3d6000fd5b50505060008281526020818152604080832054815163862a4d4760e01b815291519394506001600160a01b03169263d1bc76a192600192859263862a4d47926004808401939192918290030181865afa158015610570573d6000803e3d6000fd5b505050506040513d601f19601f82011682018060405250810190610594919061089e565b61059e91906108b7565b6040518263ffffffff1660e01b81526004016105bc91815260200190565b602060405180830381865afa1580156105d9573d6000803e3d6000fd5b505050506040513d601f19601f820116820180604052508101906105fd91906108d0565b6040516001600160a01b038216815290915082907f96bbccc53338416ebe474b9e31f9b925b760a1e47dc67937de48ab9aa7a47e3e906020016103d2565b60008181526020818152604080832054815163862a4d4760e01b815291516001600160a01b039091169263d1bc76a192600192859263862a4d4792600480820193918290030181865afa158015610696573d6000803e3d6000fd5b505050506040513d601f19601f820116820180604052508101906106ba919061089e565b6106c491906108b7565b6040518263ffffffff1660e01b81526004016106e291815260200190565b602060405180830381865afa1580156106ff573d6000803e3d6000fd5b505050506040513d601f19601f8201168201806040525081019061072391906108d0565b600083815260208190526040808220548151631d35269760e11b815291519394506001600160a01b03168031939092633a6a4d2e926004808201939182900301818387803b15801561077457600080fd5b505af1158015610788573d6000803e3d6000fd5b5050604080516001600160a01b0386168152602081018590528693507f9f5926601e7fc353505f05fae61282ae5d67b716f95656849456e6aa7bbbbb5f92500160405180910390a2505050565b610c3a806108f583390190565b6000602082840312156107f457600080fd5b5035919050565b6001600160a01b038116811461081057600080fd5b50565b6000806040838503121561082657600080fd5b823591506020830135610838816107fb565b809150509250929050565b60008060006060848603121561085857600080fd5b505081359360208301359350604090920135919050565b634e487b7160e01b600052601160045260246000fd5b6000600182016108975761089761086f565b5060010190565b6000602082840312156108b057600080fd5b5051919050565b818103818111156108ca576108ca61086f565b92915050565b6000602082840312156108e257600080fd5b81516108ed816107fb565b939250505056fe608060405234801561001057600080fd5b50604051610c3a380380610c3a83398101604081905261002f9161010e565b600084905560018390556002829055600480546001600160a01b0319166001600160a01b038316179055604051610065906100f5565b604051809103906000f080158015610081573d6000803e3d6000fd5b50600980546001600160a01b0319166001600160a01b03929092169190911790556040516100ae90610101565b604051809103906000f0801580156100ca573d6000803e3d6000fd5b50600a80546001600160a01b0319166001600160a01b03929092169190911790555061015d92505050565b60d4806109ce83390190565b61019880610aa283390190565b6000806000806080858703121561012457600080fd5b845160208601516040870151606088015192965090945092506001600160a01b038116811461015257600080fd5b939692955090935050565b6108628061016c6000396000f3fe6080604052600436106100dd5760003560e01c80635fa0b65f1161007f578063862a4d4711610059578063862a4d4714610248578063968ed6001461025e578063d1bc76a114610274578063d7bb99ba146102aa57600080fd5b80635fa0b65f146101fd57806368ae0d8514610213578063691b918f1461023357600080fd5b8063362f04c0116100bb578063362f04c01461016d5780633a6a4d2e1461018357806342e94c9014610198578063481c6a75146101c557600080fd5b806309e69ede146100e25780630fb5a6b41461012757806328ffe6c81461014b575b600080fd5b3480156100ee57600080fd5b506101126100fd36600461071a565b60056020526000908152604090205460ff1681565b60405190151581526020015b60405180910390f35b34801561013357600080fd5b5061013d60005481565b60405190815260200161011e565b34801561015757600080fd5b5061016b61016636600461071a565b6102b2565b005b34801561017957600080fd5b5061013d60025481565b34801561018f57600080fd5b5061016b61033c565b3480156101a457600080fd5b5061013d6101b336600461071a565b60066020526000908152604090205481565b3480156101d157600080fd5b506004546101e5906001600160a01b031681565b6040516001600160a01b03909116815260200161011e565b34801561020957600080fd5b5061013d60015481565b34801561021f57600080fd5b5061016b61022e36600461071a565b6103a3565b34801561023f57600080fd5b5061016b61049a565b34801561025457600080fd5b5061013d60085481565b34801561026a57600080fd5b5061013d60035481565b34801561028057600080fd5b506101e561028f36600461074a565b6007602052600090815260409020546001600160a01b031681565b61016b61055c565b6001600160a01b03811660009081526005602052604090205460ff16156103185760405162461bcd60e51b8152602060048201526015602482015274105b1c9958591e4818481c185c9d1a58da5c185b9d605a1b60448201526064015b60405180910390fd5b6001600160a01b03166000908152600560205260409020805460ff19166001179055565b60006007600060016008546103519190610779565b81526020810191909152604090810160009081205491516001600160a01b03909216925082914780156108fc0292909190818181858888f1935050505015801561039f573d6000803e3d6000fd5b5050565b6001600160a01b03811660009081526005602052604090205460ff166103ff5760405162461bcd60e51b8152602060048201526011602482015270139bdd0818481c185c9d1a58da5c185b9d607a1b604482015260640161030f565b6001600160a01b03811660009081526006602052604090205461046e5760405162461bcd60e51b815260206004820152602160248201527f4e6f20636f6e747269627574696f6e732066726f6d207061727469636970616e6044820152601d60fa1b606482015260840161030f565b6001600160a01b03166000908152600560209081526040808320805460ff191690556006909152812055565b6009546040805163dbdff2c160e01b815290516000926001600160a01b03169163dbdff2c19160048083019260209291908290030181865afa1580156104e4573d6000803e3d6000fd5b505050506040513d601f19601f820116820180604052508101906105089190610792565b905060006002548261051a91906107c1565b60088054600090815260076020526040812080546001600160a01b0319166001600160a01b0385161790558154929350610553836107d5565b91905055505050565b3360009081526005602052604090205460ff166105af5760405162461bcd60e51b8152602060048201526011602482015270139bdd0818481c185c9d1a58da5c185b9d607a1b604482015260640161030f565b60015434146106005760405162461bcd60e51b815260206004820152601d60248201527f496e636f727265637420636f6e747269627574696f6e20616d6f756e74000000604482015260640161030f565b336000908152600660205260408120805434929061061f9084906107ee565b92505081905550346003600082825461063891906107ee565b92505081905550606460005460025460015460146106569190610801565b6106609190610801565b61066a9190610801565b6106749190610818565b600354116106e357600a546040516340c10f1960e01b8152336004820152600260248201526001600160a01b03909116906340c10f19906044015b600060405180830381600087803b1580156106c957600080fd5b505af11580156106dd573d6000803e3d6000fd5b50505050565b600a546040516340c10f1960e01b8152336004820152600160248201526001600160a01b03909116906340c10f19906044016106af565b60006020828403121561072c57600080fd5b81356001600160a01b038116811461074357600080fd5b9392505050565b60006020828403121561075c57600080fd5b5035919050565b634e487b7160e01b600052601160045260246000fd5b8181038181111561078c5761078c610763565b92915050565b6000602082840312156107a457600080fd5b5051919050565b634e487b7160e01b600052601260045260246000fd5b6000826107d0576107d06107ab565b500690565b6000600182016107e7576107e7610763565b5060010190565b8082018082111561078c5761078c610763565b808202811582820484141761078c5761078c610763565b600082610827576108276107ab565b50049056fea264697066735822122095a0b285a9fadfbd28560d14220910760eb7dd9e22f410aad8b3c7767c2f940f64736f6c634300081300336080604052348015600f57600080fd5b5060b68061001e6000396000f3fe6080604052348015600f57600080fd5b506004361060285760003560e01c8063dbdff2c114602d575b600080fd5b60336045565b60405190815260200160405180910390f35b600042446040516020016062929190918252602082015260400190565b6040516020818303038152906040528051906020012060001c90509056fea26469706673582212207808362468021ff3567b31fb11279d067ac23f20cd106c01c608ff96ea61fba364736f6c63430008130033608060405234801561001057600080fd5b50610178806100206000396000f3fe608060405234801561001057600080fd5b50600436106100365760003560e01c806327e235e31461003b57806340c10f191461006d575b600080fd5b61005b6100493660046100cf565b60006020819052908152604090205481565b60405190815260200160405180910390f35b61008061007b3660046100f1565b610082565b005b6001600160a01b038216600090815260208190526040812080548392906100aa90849061011b565b90915550505050565b80356001600160a01b03811681146100ca57600080fd5b919050565b6000602082840312156100e157600080fd5b6100ea826100b3565b9392505050565b6000806040838503121561010457600080fd5b61010d836100b3565b946020939093013593505050565b8082018082111561013c57634e487b7160e01b600052601160045260246000fd5b9291505056fea2646970667358221220ca969a1f2bb3971bab71f5a4b0845f4d80b7759f9f442e0b03cfe7ebc1dc3ea564736f6c63430008130033a2646970667358221220d8c2f960e59f2dca48e4f6cf3ae46dbca9171a5f5341f8c24003fc6407e9f09764736f6c63430008130033","opcodes":"PUSH1 0x80 PUSH1 0x40 MSTORE CALLVALUE DUP1 ISZERO PUSH2 0x10 JUMPI PUSH1 0x0 DUP1 REVERT JUMPDEST POP PUSH2 0x1564 DUP1 PUSH2 0x20 PUSH1 0x0 CODECOPY PUSH1 0x0 RETURN INVALID PUSH1 0x80 PUSH1 0x40 MSTORE PUSH1 0x4 CALLDATASIZE LT PUSH2 0x86 JUMPI PUSH1 0x0 CALLDATALOAD PUSH1 0xE0 SHR DUP1 PUSH4 0x634CF6D5 GT PUSH2 0x59 JUMPI DUP1 PUSH4 0x634CF6D5 EQ PUSH2 0x133 JUMPI DUP1 PUSH4 0x896D4657 EQ PUSH2 0x153 JUMPI DUP1 PUSH4 0xBD15F9D4 EQ PUSH2 0x173 JUMPI DUP1 PUSH4 0xE6674399 EQ PUSH2 0x197 JUMPI DUP1 PUSH4 0xF726F715 EQ PUSH2 0x1CD JUMPI PUSH1 0x0 DUP1 REVERT JUMPDEST DUP1 PUSH4 0x2A354560 EQ PUSH2 0x8B JUMPI DUP1 PUSH4 0x325B9AA0 EQ PUSH2 0xAD JUMPI DUP1 PUSH4 0x4019C2F1 EQ PUSH2 0x100 JUMPI DUP1 PUSH4 0x42784B2B EQ PUSH2 0x113 JUMPI JUMPDEST PUSH1 0x0 DUP1 REVERT JUMPDEST CALLVALUE DUP1 ISZERO PUSH2 0x97 JUMPI PUSH1 0x0 DUP1 REVERT JUMPDEST POP PUSH2 0xAB PUSH2 0xA6 CALLDATASIZE PUSH1 0x4 PUSH2 0x7E2 JUMP JUMPDEST PUSH2 0x1ED JUMP JUMPDEST STOP JUMPDEST CALLVALUE DUP1 ISZERO PUSH2 0xB9 JUMPI PUSH1 0x0 DUP1 REVERT JUMPDEST POP PUSH2 0xE3 PUSH2 0xC8 CALLDATASIZE PUSH1 0x4 PUSH2 0x7E2 JUMP JUMPDEST PUSH1 0x0 SWAP1 DUP2 MSTORE PUSH1 0x20 DUP2 SWAP1 MSTORE PUSH1 0x40 SWAP1 KECCAK256 SLOAD PUSH1 0x1 PUSH1 0x1 PUSH1 0xA0 SHL SUB AND SWAP1 JUMP JUMPDEST PUSH1 0x40 MLOAD PUSH1 0x1 PUSH1 0x1 PUSH1 0xA0 SHL SUB SWAP1 SWAP2 AND DUP2 MSTORE PUSH1 0x20 ADD JUMPDEST PUSH1 0x40 MLOAD DUP1 SWAP2 SUB SWAP1 RETURN JUMPDEST PUSH2 0xAB PUSH2 0x10E CALLDATASIZE PUSH1 0x4 PUSH2 0x7E2 JUMP JUMPDEST PUSH2 0x290 JUMP JUMPDEST CALLVALUE DUP1 ISZERO PUSH2 0x11F JUMPI PUSH1 0x0 DUP1 REVERT JUMPDEST POP PUSH2 0xAB PUSH2 0x12E CALLDATASIZE PUSH1 0x4 PUSH2 0x813 JUMP JUMPDEST PUSH2 0x32F JUMP JUMPDEST CALLVALUE DUP1 ISZERO PUSH2 0x13F JUMPI PUSH1 0x0 DUP1 REVERT JUMPDEST POP PUSH2 0xAB PUSH2 0x14E CALLDATASIZE PUSH1 0x4 PUSH2 0x843 JUMP JUMPDEST PUSH2 0x3DE JUMP JUMPDEST CALLVALUE DUP1 ISZERO PUSH2 0x15F JUMPI PUSH1 0x0 DUP1 REVERT JUMPDEST POP PUSH2 0xAB PUSH2 0x16E CALLDATASIZE PUSH1 0x4 PUSH2 0x7E2 JUMP JUMPDEST PUSH2 0x4AF JUMP JUMPDEST CALLVALUE DUP1 ISZERO PUSH2 0x17F JUMPI PUSH1 0x0 DUP1 REVERT JUMPDEST POP PUSH2 0x189 PUSH1 0x1 SLOAD DUP2 JUMP JUMPDEST PUSH1 0x40 MLOAD SWAP1 DUP2 MSTORE PUSH1 0x20 ADD PUSH2 0xF7 JUMP JUMPDEST CALLVALUE DUP1 ISZERO PUSH2 0x1A3 JUMPI PUSH1 0x0 DUP1 REVERT JUMPDEST POP PUSH2 0xE3 PUSH2 0x1B2 CALLDATASIZE PUSH1 0x4 PUSH2 0x7E2 JUMP JUMPDEST PUSH1 0x0 PUSH1 0x20 DUP2 SWAP1 MSTORE SWAP1 DUP2 MSTORE PUSH1 0x40 SWAP1 KECCAK256 SLOAD PUSH1 0x1 PUSH1 0x1 PUSH1 0xA0 SHL SUB AND DUP2 JUMP JUMPDEST CALLVALUE DUP1 ISZERO PUSH2 0x1D9 JUMPI PUSH1 0x0 DUP1 REVERT JUMPDEST POP PUSH2 0xAB PUSH2 0x1E8 CALLDATASIZE PUSH1 0x4 PUSH2 0x7E2 JUMP JUMPDEST PUSH2 0x63B JUMP JUMPDEST PUSH1 0x0 DUP2 DUP2 MSTORE PUSH1 0x20 DUP2 SWAP1 MSTORE PUSH1 0x40 SWAP1 DUP2 SWAP1 KECCAK256 SLOAD SWAP1 MLOAD PUSH4 0x51FFCD9 PUSH1 0xE3 SHL DUP2 MSTORE CALLER PUSH1 0x4 DUP3 ADD MSTORE PUSH1 0x1 PUSH1 0x1 PUSH1 0xA0 SHL SUB SWAP1 SWAP2 AND SWAP1 PUSH4 0x28FFE6C8 SWAP1 PUSH1 0x24 ADD PUSH1 0x0 PUSH1 0x40 MLOAD DUP1 DUP4 SUB DUP2 PUSH1 0x0 DUP8 DUP1 EXTCODESIZE ISZERO DUP1 ISZERO PUSH2 0x23F JUMPI PUSH1 0x0 DUP1 REVERT JUMPDEST POP GAS CALL ISZERO DUP1 ISZERO PUSH2 0x253 JUMPI RETURNDATASIZE PUSH1 0x0 DUP1 RETURNDATACOPY RETURNDATASIZE PUSH1 0x0 REVERT JUMPDEST POP POP PUSH1 0x40 MLOAD CALLER DUP2 MSTORE DUP4 SWAP3 POP PUSH32 0x7DD8CB04159701BC1976C246434D7D96812782E7489E6C5C34DB49A388FE9E80 SWAP2 POP PUSH1 0x20 ADD JUMPDEST PUSH1 0x40 MLOAD DUP1 SWAP2 SUB SWAP1 LOG2 POP JUMP JUMPDEST PUSH1 0x0 DUP2 DUP2 MSTORE PUSH1 0x20 DUP2 SWAP1 MSTORE PUSH1 0x40 DUP1 DUP3 KECCAK256 SLOAD DUP2 MLOAD PUSH4 0x6BDDCCDD PUSH1 0xE1 SHL DUP2 MSTORE SWAP2 MLOAD PUSH1 0x1 PUSH1 0x1 PUSH1 0xA0 SHL SUB SWAP1 SWAP2 AND SWAP3 PUSH4 0xD7BB99BA SWAP3 CALLVALUE SWAP3 PUSH1 0x4 DUP1 DUP4 ADD SWAP4 SWAP3 DUP3 SWAP1 SUB ADD DUP2 DUP6 DUP9 DUP1 EXTCODESIZE ISZERO DUP1 ISZERO PUSH2 0x2DE JUMPI PUSH1 0x0 DUP1 REVERT JUMPDEST POP GAS CALL ISZERO DUP1 ISZERO PUSH2 0x2F2 JUMPI RETURNDATASIZE PUSH1 0x0 DUP1 RETURNDATACOPY RETURNDATASIZE PUSH1 0x0 REVERT JUMPDEST POP POP PUSH1 0x40 DUP1 MLOAD CALLER DUP2 MSTORE CALLVALUE PUSH1 0x20 DUP3 ADD MSTORE DUP6 SWAP5 POP PUSH32 0xA4A91237423E0A1766A761C7CB029311D8B95D6B1B81DB1B949A70C98B4E08E SWAP4 POP ADD SWAP1 POP PUSH2 0x285 JUMP JUMPDEST PUSH1 0x0 DUP3 DUP2 MSTORE PUSH1 0x20 DUP2 SWAP1 MSTORE PUSH1 0x40 SWAP1 DUP2 SWAP1 KECCAK256 SLOAD SWAP1 MLOAD PUSH4 0x68AE0D85 PUSH1 0xE0 SHL DUP2 MSTORE PUSH1 0x1 PUSH1 0x1 PUSH1 0xA0 SHL SUB DUP4 DUP2 AND PUSH1 0x4 DUP4 ADD MSTORE SWAP1 SWAP2 AND SWAP1 PUSH4 0x68AE0D85 SWAP1 PUSH1 0x24 ADD PUSH1 0x0 PUSH1 0x40 MLOAD DUP1 DUP4 SUB DUP2 PUSH1 0x0 DUP8 DUP1 EXTCODESIZE ISZERO DUP1 ISZERO PUSH2 0x383 JUMPI PUSH1 0x0 DUP1 REVERT JUMPDEST POP GAS CALL ISZERO DUP1 ISZERO PUSH2 0x397 JUMPI RETURNDATASIZE PUSH1 0x0 DUP1 RETURNDATACOPY RETURNDATASIZE PUSH1 0x0 REVERT JUMPDEST POP POP PUSH1 0x40 MLOAD PUSH1 0x1 PUSH1 0x1 PUSH1 0xA0 SHL SUB DUP5 AND DUP2 MSTORE DUP5 SWAP3 POP PUSH32 0xE140124F017B7EC0E2872DB65721977F1B797D5E791F3BF52DE0E369D6DF2C08 SWAP2 POP PUSH1 0x20 ADD JUMPDEST PUSH1 0x40 MLOAD DUP1 SWAP2 SUB SWAP1 LOG2 POP POP JUMP JUMPDEST PUSH1 0x0 DUP4 DUP4 DUP4 CALLER PUSH1 0x40 MLOAD PUSH2 0x3F0 SWAP1 PUSH2 0x7D5 JUMP JUMPDEST SWAP4 DUP5 MSTORE PUSH1 0x20 DUP5 ADD SWAP3 SWAP1 SWAP3 MSTORE PUSH1 0x40 DUP4 ADD MSTORE PUSH1 0x1 PUSH1 0x1 PUSH1 0xA0 SHL SUB AND PUSH1 0x60 DUP3 ADD MSTORE PUSH1 0x80 ADD PUSH1 0x40 MLOAD DUP1 SWAP2 SUB SWAP1 PUSH1 0x0 CREATE DUP1 ISZERO DUP1 ISZERO PUSH2 0x42D JUMPI RETURNDATASIZE PUSH1 0x0 DUP1 RETURNDATACOPY RETURNDATASIZE PUSH1 0x0 REVERT JUMPDEST POP PUSH1 0x1 DUP1 SLOAD PUSH1 0x0 SWAP1 DUP2 MSTORE PUSH1 0x20 DUP2 DUP2 MSTORE PUSH1 0x40 SWAP2 DUP3 SWAP1 KECCAK256 DUP1 SLOAD PUSH1 0x1 PUSH1 0x1 PUSH1 0xA0 SHL SUB NOT AND PUSH1 0x1 PUSH1 0x1 PUSH1 0xA0 SHL SUB DUP7 AND SWAP1 DUP2 OR SWAP1 SWAP2 SSTORE SWAP3 SLOAD SWAP2 MLOAD SWAP3 DUP4 MSTORE SWAP3 SWAP4 POP SWAP2 PUSH32 0xA73B551D9BFEB14727F63EF274D936883E7AF2425E52209B279C34B1A0C475C1 SWAP2 ADD PUSH1 0x40 MLOAD DUP1 SWAP2 SUB SWAP1 LOG2 PUSH1 0x1 DUP1 SLOAD SWAP1 PUSH1 0x0 PUSH2 0x4A4 DUP4 PUSH2 0x885 JUMP JUMPDEST SWAP2 SWAP1 POP SSTORE POP POP POP POP POP JUMP JUMPDEST PUSH1 0x0 DUP2 DUP2 MSTORE PUSH1 0x20 DUP2 SWAP1 MSTORE PUSH1 0x40 DUP1 DUP3 KECCAK256 SLOAD DUP2 MLOAD PUSH4 0x691B918F PUSH1 0xE0 SHL DUP2 MSTORE SWAP2 MLOAD PUSH1 0x1 PUSH1 0x1 PUSH1 0xA0 SHL SUB SWAP1 SWAP2 AND SWAP3 PUSH4 0x691B918F SWAP3 PUSH1 0x4 DUP1 DUP3 ADD SWAP4 SWAP2 DUP3 SWAP1 SUB ADD DUP2 DUP4 DUP8 DUP1 EXTCODESIZE ISZERO DUP1 ISZERO PUSH2 0x4FB JUMPI PUSH1 0x0 DUP1 REVERT JUMPDEST POP GAS CALL ISZERO DUP1 ISZERO PUSH2 0x50F JUMPI RETURNDATASIZE PUSH1 0x0 DUP1 RETURNDATACOPY RETURNDATASIZE PUSH1 0x0 REVERT JUMPDEST POP POP POP PUSH1 0x0 DUP3 DUP2 MSTORE PUSH1 0x20 DUP2 DUP2 MSTORE PUSH1 0x40 DUP1 DUP4 KECCAK256 SLOAD DUP2 MLOAD PUSH4 0x862A4D47 PUSH1 0xE0 SHL DUP2 MSTORE SWAP2 MLOAD SWAP4 SWAP5 POP PUSH1 0x1 PUSH1 0x1 PUSH1 0xA0 SHL SUB AND SWAP3 PUSH4 0xD1BC76A1 SWAP3 PUSH1 0x1 SWAP3 DUP6 SWAP3 PUSH4 0x862A4D47 SWAP3 PUSH1 0x4 DUP1 DUP5 ADD SWAP4 SWAP2 SWAP3 SWAP2 DUP3 SWAP1 SUB ADD DUP2 DUP7 GAS STATICCALL ISZERO DUP1 ISZERO PUSH2 0x570 JUMPI RETURNDATASIZE PUSH1 0x0 DUP1 RETURNDATACOPY RETURNDATASIZE PUSH1 0x0 REVERT JUMPDEST POP POP POP POP PUSH1 0x40 MLOAD RETURNDATASIZE PUSH1 0x1F NOT PUSH1 0x1F DUP3 ADD AND DUP3 ADD DUP1 PUSH1 0x40 MSTORE POP DUP2 ADD SWAP1 PUSH2 0x594 SWAP2 SWAP1 PUSH2 0x89E JUMP JUMPDEST PUSH2 0x59E SWAP2 SWAP1 PUSH2 0x8B7 JUMP JUMPDEST PUSH1 0x40 MLOAD DUP3 PUSH4 0xFFFFFFFF AND PUSH1 0xE0 SHL DUP2 MSTORE PUSH1 0x4 ADD PUSH2 0x5BC SWAP2 DUP2 MSTORE PUSH1 0x20 ADD SWAP1 JUMP JUMPDEST PUSH1 0x20 PUSH1 0x40 MLOAD DUP1 DUP4 SUB DUP2 DUP7 GAS STATICCALL ISZERO DUP1 ISZERO PUSH2 0x5D9 JUMPI RETURNDATASIZE PUSH1 0x0 DUP1 RETURNDATACOPY RETURNDATASIZE PUSH1 0x0 REVERT JUMPDEST POP POP POP POP PUSH1 0x40 MLOAD RETURNDATASIZE PUSH1 0x1F NOT PUSH1 0x1F DUP3 ADD AND DUP3 ADD DUP1 PUSH1 0x40 MSTORE POP DUP2 ADD SWAP1 PUSH2 0x5FD SWAP2 SWAP1 PUSH2 0x8D0 JUMP JUMPDEST PUSH1 0x40 MLOAD PUSH1 0x1 PUSH1 0x1 PUSH1 0xA0 SHL SUB DUP3 AND DUP2 MSTORE SWAP1 SWAP2 POP DUP3 SWAP1 PUSH32 0x96BBCCC53338416EBE474B9E31F9B925B760A1E47DC67937DE48AB9AA7A47E3E SWAP1 PUSH1 0x20 ADD PUSH2 0x3D2 JUMP JUMPDEST PUSH1 0x0 DUP2 DUP2 MSTORE PUSH1 0x20 DUP2 DUP2 MSTORE PUSH1 0x40 DUP1 DUP4 KECCAK256 SLOAD DUP2 MLOAD PUSH4 0x862A4D47 PUSH1 0xE0 SHL DUP2 MSTORE SWAP2 MLOAD PUSH1 0x1 PUSH1 0x1 PUSH1 0xA0 SHL SUB SWAP1 SWAP2 AND SWAP3 PUSH4 0xD1BC76A1 SWAP3 PUSH1 0x1 SWAP3 DUP6 SWAP3 PUSH4 0x862A4D47 SWAP3 PUSH1 0x4 DUP1 DUP3 ADD SWAP4 SWAP2 DUP3 SWAP1 SUB ADD DUP2 DUP7 GAS STATICCALL ISZERO DUP1 ISZERO PUSH2 0x696 JUMPI RETURNDATASIZE PUSH1 0x0 DUP1 RETURNDATACOPY RETURNDATASIZE PUSH1 0x0 REVERT JUMPDEST POP POP POP POP PUSH1 0x40 MLOAD RETURNDATASIZE PUSH1 0x1F NOT PUSH1 0x1F DUP3 ADD AND DUP3 ADD DUP1 PUSH1 0x40 MSTORE POP DUP2 ADD SWAP1 PUSH2 0x6BA SWAP2 SWAP1 PUSH2 0x89E JUMP JUMPDEST PUSH2 0x6C4 SWAP2 SWAP1 PUSH2 0x8B7 JUMP JUMPDEST PUSH1 0x40 MLOAD DUP3 PUSH4 0xFFFFFFFF AND PUSH1 0xE0 SHL DUP2 MSTORE PUSH1 0x4 ADD PUSH2 0x6E2 SWAP2 DUP2 MSTORE PUSH1 0x20 ADD SWAP1 JUMP JUMPDEST PUSH1 0x20 PUSH1 0x40 MLOAD DUP1 DUP4 SUB DUP2 DUP7 GAS STATICCALL ISZERO DUP1 ISZERO PUSH2 0x6FF JUMPI RETURNDATASIZE PUSH1 0x0 DUP1 RETURNDATACOPY RETURNDATASIZE PUSH1 0x0 REVERT JUMPDEST POP POP POP POP PUSH1 0x40 MLOAD RETURNDATASIZE PUSH1 0x1F NOT PUSH1 0x1F DUP3 ADD AND DUP3 ADD DUP1 PUSH1 0x40 MSTORE POP DUP2 ADD SWAP1 PUSH2 0x723 SWAP2 SWAP1 PUSH2 0x8D0 JUMP JUMPDEST PUSH1 0x0 DUP4 DUP2 MSTORE PUSH1 0x20 DUP2 SWAP1 MSTORE PUSH1 0x40 DUP1 DUP3 KECCAK256 SLOAD DUP2 MLOAD PUSH4 0x1D352697 PUSH1 0xE1 SHL DUP2 MSTORE SWAP2 MLOAD SWAP4 SWAP5 POP PUSH1 0x1 PUSH1 0x1 PUSH1 0xA0 SHL SUB AND DUP1 BALANCE SWAP4 SWAP1 SWAP3 PUSH4 0x3A6A4D2E SWAP3 PUSH1 0x4 DUP1 DUP3 ADD SWAP4 SWAP2 DUP3 SWAP1 SUB ADD DUP2 DUP4 DUP8 DUP1 EXTCODESIZE ISZERO DUP1 ISZERO PUSH2 0x774 JUMPI PUSH1 0x0 DUP1 REVERT JUMPDEST POP GAS CALL ISZERO DUP1 ISZERO PUSH2 0x788 JUMPI RETURNDATASIZE PUSH1 0x0 DUP1 RETURNDATACOPY RETURNDATASIZE PUSH1 0x0 REVERT JUMPDEST POP POP PUSH1 0x40 DUP1 MLOAD PUSH1 0x1 PUSH1 0x1 PUSH1 0xA0 SHL SUB DUP7 AND DUP2 MSTORE PUSH1 0x20 DUP2 ADD DUP6 SWAP1 MSTORE DUP7 SWAP4 POP PUSH32 0x9F5926601E7FC353505F05FAE61282AE5D67B716F95656849456E6AA7BBBBB5F SWAP3 POP ADD PUSH1 0x40 MLOAD DUP1 SWAP2 SUB SWAP1 LOG2 POP POP POP JUMP JUMPDEST PUSH2 0xC3A DUP1 PUSH2 0x8F5 DUP4 CODECOPY ADD SWAP1 JUMP JUMPDEST PUSH1 0x0 PUSH1 0x20 DUP3 DUP5 SUB SLT ISZERO PUSH2 0x7F4 JUMPI PUSH1 0x0 DUP1 REVERT JUMPDEST POP CALLDATALOAD SWAP2 SWAP1 POP JUMP JUMPDEST PUSH1 0x1 PUSH1 0x1 PUSH1 0xA0 SHL SUB DUP2 AND DUP2 EQ PUSH2 0x810 JUMPI PUSH1 0x0 DUP1 REVERT JUMPDEST POP JUMP JUMPDEST PUSH1 0x0 DUP1 PUSH1 0x40 DUP4 DUP6 SUB SLT ISZERO PUSH2 0x826 JUMPI PUSH1 0x0 DUP1 REVERT JUMPDEST DUP3 CALLDATALOAD SWAP2 POP PUSH1 0x20 DUP4 ADD CALLDATALOAD PUSH2 0x838 DUP2 PUSH2 0x7FB JUMP JUMPDEST DUP1 SWAP2 POP POP SWAP3 POP SWAP3 SWAP1 POP JUMP JUMPDEST PUSH1 0x0 DUP1 PUSH1 0x0 PUSH1 0x60 DUP5 DUP7 SUB SLT ISZERO PUSH2 0x858 JUMPI PUSH1 0x0 DUP1 REVERT JUMPDEST POP POP DUP2 CALLDATALOAD SWAP4 PUSH1 0x20 DUP4 ADD CALLDATALOAD SWAP4 POP PUSH1 0x40 SWAP1 SWAP3 ADD CALLDATALOAD SWAP2 SWAP1 POP JUMP JUMPDEST PUSH4 0x4E487B71 PUSH1 0xE0 SHL PUSH1 0x0 MSTORE PUSH1 0x11 PUSH1 0x4 MSTORE PUSH1 0x24 PUSH1 0x0 REVERT JUMPDEST PUSH1 0x0 PUSH1 0x1 DUP3 ADD PUSH2 0x897 JUMPI PUSH2 0x897 PUSH2 0x86F JUMP JUMPDEST POP PUSH1 0x1 ADD SWAP1 JUMP JUMPDEST PUSH1 0x0 PUSH1 0x20 DUP3 DUP5 SUB SLT ISZERO PUSH2 0x8B0 JUMPI PUSH1 0x0 DUP1 REVERT JUMPDEST POP MLOAD SWAP2 SWAP1 POP JUMP JUMPDEST DUP2 DUP2 SUB DUP2 DUP2 GT ISZERO PUSH2 0x8CA JUMPI PUSH2 0x8CA PUSH2 0x86F JUMP JUMPDEST SWAP3 SWAP2 POP POP JUMP JUMPDEST PUSH1 0x0 PUSH1 0x20 DUP3 DUP5 SUB SLT ISZERO PUSH2 0x8E2 JUMPI PUSH1 0x0 DUP1 REVERT JUMPDEST DUP2 MLOAD PUSH2 0x8ED DUP2 PUSH2 0x7FB JUMP JUMPDEST SWAP4 SWAP3 POP POP POP JUMP INVALID PUSH1 0x80 PUSH1 0x40 MSTORE CALLVALUE DUP1 ISZERO PUSH2 0x10 JUMPI PUSH1 0x0 DUP1 REVERT JUMPDEST POP PUSH1 0x40 MLOAD PUSH2 0xC3A CODESIZE SUB DUP1 PUSH2 0xC3A DUP4 CODECOPY DUP2 ADD PUSH1 0x40 DUP2 SWAP1 MSTORE PUSH2 0x2F SWAP2 PUSH2 0x10E JUMP JUMPDEST PUSH1 0x0 DUP5 SWAP1 SSTORE PUSH1 0x1 DUP4 SWAP1 SSTORE PUSH1 0x2 DUP3 SWAP1 SSTORE PUSH1 0x4 DUP1 SLOAD PUSH1 0x1 PUSH1 0x1 PUSH1 0xA0 SHL SUB NOT AND PUSH1 0x1 PUSH1 0x1 PUSH1 0xA0 SHL SUB DUP4 AND OR SWAP1 SSTORE PUSH1 0x40 MLOAD PUSH2 0x65 SWAP1 PUSH2 0xF5 JUMP JUMPDEST PUSH1 0x40 MLOAD DUP1 SWAP2 SUB SWAP1 PUSH1 0x0 CREATE DUP1 ISZERO DUP1 ISZERO PUSH2 0x81 JUMPI RETURNDATASIZE PUSH1 0x0 DUP1 RETURNDATACOPY RETURNDATASIZE PUSH1 0x0 REVERT JUMPDEST POP PUSH1 0x9 DUP1 SLOAD PUSH1 0x1 PUSH1 0x1 PUSH1 0xA0 SHL SUB NOT AND PUSH1 0x1 PUSH1 0x1 PUSH1 0xA0 SHL SUB SWAP3 SWAP1 SWAP3 AND SWAP2 SWAP1 SWAP2 OR SWAP1 SSTORE PUSH1 0x40 MLOAD PUSH2 0xAE SWAP1 PUSH2 0x101 JUMP JUMPDEST PUSH1 0x40 MLOAD DUP1 SWAP2 SUB SWAP1 PUSH1 0x0 CREATE DUP1 ISZERO DUP1 ISZERO PUSH2 0xCA JUMPI RETURNDATASIZE PUSH1 0x0 DUP1 RETURNDATACOPY RETURNDATASIZE PUSH1 0x0 REVERT JUMPDEST POP PUSH1 0xA DUP1 SLOAD PUSH1 0x1 PUSH1 0x1 PUSH1 0xA0 SHL SUB NOT AND PUSH1 0x1 PUSH1 0x1 PUSH1 0xA0 SHL SUB SWAP3 SWAP1 SWAP3 AND SWAP2 SWAP1 SWAP2 OR SWAP1 SSTORE POP PUSH2 0x15D SWAP3 POP POP POP JUMP JUMPDEST PUSH1 0xD4 DUP1 PUSH2 0x9CE DUP4 CODECOPY ADD SWAP1 JUMP JUMPDEST PUSH2 0x198 DUP1 PUSH2 0xAA2 DUP4 CODECOPY ADD SWAP1 JUMP JUMPDEST PUSH1 0x0 DUP1 PUSH1 0x0 DUP1 PUSH1 0x80 DUP6 DUP8 SUB SLT ISZERO PUSH2 0x124 JUMPI PUSH1 0x0 DUP1 REVERT JUMPDEST DUP5 MLOAD PUSH1 0x20 DUP7 ADD MLOAD PUSH1 0x40 DUP8 ADD MLOAD PUSH1 0x60 DUP9 ADD MLOAD SWAP3 SWAP7 POP SWAP1 SWAP5 POP SWAP3 POP PUSH1 0x1 PUSH1 0x1 PUSH1 0xA0 SHL SUB DUP2 AND DUP2 EQ PUSH2 0x152 JUMPI PUSH1 0x0 DUP1 REVERT JUMPDEST SWAP4 SWAP7 SWAP3 SWAP6 POP SWAP1 SWAP4 POP POP JUMP JUMPDEST PUSH2 0x862 DUP1 PUSH2 0x16C PUSH1 0x0 CODECOPY PUSH1 0x0 RETURN INVALID PUSH1 0x80 PUSH1 0x40 MSTORE PUSH1 0x4 CALLDATASIZE LT PUSH2 0xDD JUMPI PUSH1 0x0 CALLDATALOAD PUSH1 0xE0 SHR DUP1 PUSH4 0x5FA0B65F GT PUSH2 0x7F JUMPI DUP1 PUSH4 0x862A4D47 GT PUSH2 0x59 JUMPI DUP1 PUSH4 0x862A4D47 EQ PUSH2 0x248 JUMPI DUP1 PUSH4 0x968ED600 EQ PUSH2 0x25E JUMPI DUP1 PUSH4 0xD1BC76A1 EQ PUSH2 0x274 JUMPI DUP1 PUSH4 0xD7BB99BA EQ PUSH2 0x2AA JUMPI PUSH1 0x0 DUP1 REVERT JUMPDEST DUP1 PUSH4 0x5FA0B65F EQ PUSH2 0x1FD JUMPI DUP1 PUSH4 0x68AE0D85 EQ PUSH2 0x213 JUMPI DUP1 PUSH4 0x691B918F EQ PUSH2 0x233 JUMPI PUSH1 0x0 DUP1 REVERT JUMPDEST DUP1 PUSH4 0x362F04C0 GT PUSH2 0xBB JUMPI DUP1 PUSH4 0x362F04C0 EQ PUSH2 0x16D JUMPI DUP1 PUSH4 0x3A6A4D2E EQ PUSH2 0x183 JUMPI DUP1 PUSH4 0x42E94C90 EQ PUSH2 0x198 JUMPI DUP1 PUSH4 0x481C6A75 EQ PUSH2 0x1C5 JUMPI PUSH1 0x0 DUP1 REVERT JUMPDEST DUP1 PUSH4 0x9E69EDE EQ PUSH2 0xE2 JUMPI DUP1 PUSH4 0xFB5A6B4 EQ PUSH2 0x127 JUMPI DUP1 PUSH4 0x28FFE6C8 EQ PUSH2 0x14B JUMPI JUMPDEST PUSH1 0x0 DUP1 REVERT JUMPDEST CALLVALUE DUP1 ISZERO PUSH2 0xEE JUMPI PUSH1 0x0 DUP1 REVERT JUMPDEST POP PUSH2 0x112 PUSH2 0xFD CALLDATASIZE PUSH1 0x4 PUSH2 0x71A JUMP JUMPDEST PUSH1 0x5 PUSH1 0x20 MSTORE PUSH1 0x0 SWAP1 DUP2 MSTORE PUSH1 0x40 SWAP1 KECCAK256 SLOAD PUSH1 0xFF AND DUP2 JUMP JUMPDEST PUSH1 0x40 MLOAD SWAP1 ISZERO ISZERO DUP2 MSTORE PUSH1 0x20 ADD JUMPDEST PUSH1 0x40 MLOAD DUP1 SWAP2 SUB SWAP1 RETURN JUMPDEST CALLVALUE DUP1 ISZERO PUSH2 0x133 JUMPI PUSH1 0x0 DUP1 REVERT JUMPDEST POP PUSH2 0x13D PUSH1 0x0 SLOAD DUP2 JUMP JUMPDEST PUSH1 0x40 MLOAD SWAP1 DUP2 MSTORE PUSH1 0x20 ADD PUSH2 0x11E JUMP JUMPDEST CALLVALUE DUP1 ISZERO PUSH2 0x157 JUMPI PUSH1 0x0 DUP1 REVERT JUMPDEST POP PUSH2 0x16B PUSH2 0x166 CALLDATASIZE PUSH1 0x4 PUSH2 0x71A JUMP JUMPDEST PUSH2 0x2B2 JUMP JUMPDEST STOP JUMPDEST CALLVALUE DUP1 ISZERO PUSH2 0x179 JUMPI PUSH1 0x0 DUP1 REVERT JUMPDEST POP PUSH2 0x13D PUSH1 0x2 SLOAD DUP2 JUMP JUMPDEST CALLVALUE DUP1 ISZERO PUSH2 0x18F JUMPI PUSH1 0x0 DUP1 REVERT JUMPDEST POP PUSH2 0x16B PUSH2 0x33C JUMP JUMPDEST CALLVALUE DUP1 ISZERO PUSH2 0x1A4 JUMPI PUSH1 0x0 DUP1 REVERT JUMPDEST POP PUSH2 0x13D PUSH2 0x1B3 CALLDATASIZE PUSH1 0x4 PUSH2 0x71A JUMP JUMPDEST PUSH1 0x6 PUSH1 0x20 MSTORE PUSH1 0x0 SWAP1 DUP2 MSTORE PUSH1 0x40 SWAP1 KECCAK256 SLOAD DUP2 JUMP JUMPDEST CALLVALUE DUP1 ISZERO PUSH2 0x1D1 JUMPI PUSH1 0x0 DUP1 REVERT JUMPDEST POP PUSH1 0x4 SLOAD PUSH2 0x1E5 SWAP1 PUSH1 0x1 PUSH1 0x1 PUSH1 0xA0 SHL SUB AND DUP2 JUMP JUMPDEST PUSH1 0x40 MLOAD PUSH1 0x1 PUSH1 0x1 PUSH1 0xA0 SHL SUB SWAP1 SWAP2 AND DUP2 MSTORE PUSH1 0x20 ADD PUSH2 0x11E JUMP JUMPDEST CALLVALUE DUP1 ISZERO PUSH2 0x209 JUMPI PUSH1 0x0 DUP1 REVERT JUMPDEST POP PUSH2 0x13D PUSH1 0x1 SLOAD DUP2 JUMP JUMPDEST CALLVALUE DUP1 ISZERO PUSH2 0x21F JUMPI PUSH1 0x0 DUP1 REVERT JUMPDEST POP PUSH2 0x16B PUSH2 0x22E CALLDATASIZE PUSH1 0x4 PUSH2 0x71A JUMP JUMPDEST PUSH2 0x3A3 JUMP JUMPDEST CALLVALUE DUP1 ISZERO PUSH2 0x23F JUMPI PUSH1 0x0 DUP1 REVERT JUMPDEST POP PUSH2 0x16B PUSH2 0x49A JUMP JUMPDEST CALLVALUE DUP1 ISZERO PUSH2 0x254 JUMPI PUSH1 0x0 DUP1 REVERT JUMPDEST POP PUSH2 0x13D PUSH1 0x8 SLOAD DUP2 JUMP JUMPDEST CALLVALUE DUP1 ISZERO PUSH2 0x26A JUMPI PUSH1 0x0 DUP1 REVERT JUMPDEST POP PUSH2 0x13D PUSH1 0x3 SLOAD DUP2 JUMP JUMPDEST CALLVALUE DUP1 ISZERO PUSH2 0x280 JUMPI PUSH1 0x0 DUP1 REVERT JUMPDEST POP PUSH2 0x1E5 PUSH2 0x28F CALLDATASIZE PUSH1 0x4 PUSH2 0x74A JUMP JUMPDEST PUSH1 0x7 PUSH1 0x20 MSTORE PUSH1 0x0 SWAP1 DUP2 MSTORE PUSH1 0x40 SWAP1 KECCAK256 SLOAD PUSH1 0x1 PUSH1 0x1 PUSH1 0xA0 SHL SUB AND DUP2 JUMP JUMPDEST PUSH2 0x16B PUSH2 0x55C JUMP JUMPDEST PUSH1 0x1 PUSH1 0x1 PUSH1 0xA0 SHL SUB DUP2 AND PUSH1 0x0 SWAP1 DUP2 MSTORE PUSH1 0x5 PUSH1 0x20 MSTORE PUSH1 0x40 SWAP1 KECCAK256 SLOAD PUSH1 0xFF AND ISZERO PUSH2 0x318 JUMPI PUSH1 0x40 MLOAD PUSH3 0x461BCD PUSH1 0xE5 SHL DUP2 MSTORE PUSH1 0x20 PUSH1 0x4 DUP3 ADD MSTORE PUSH1 0x15 PUSH1 0x24 DUP3 ADD MSTORE PUSH21 0x105B1C9958591E4818481C185C9D1A58DA5C185B9D PUSH1 0x5A SHL PUSH1 0x44 DUP3 ADD MSTORE PUSH1 0x64 ADD JUMPDEST PUSH1 0x40 MLOAD DUP1 SWAP2 SUB SWAP1 REVERT JUMPDEST PUSH1 0x1 PUSH1 0x1 PUSH1 0xA0 SHL SUB AND PUSH1 0x0 SWAP1 DUP2 MSTORE PUSH1 0x5 PUSH1 0x20 MSTORE PUSH1 0x40 SWAP1 KECCAK256 DUP1 SLOAD PUSH1 0xFF NOT AND PUSH1 0x1 OR SWAP1 SSTORE JUMP JUMPDEST PUSH1 0x0 PUSH1 0x7 PUSH1 0x0 PUSH1 0x1 PUSH1 0x8 SLOAD PUSH2 0x351 SWAP2 SWAP1 PUSH2 0x779 JUMP JUMPDEST DUP2 MSTORE PUSH1 0x20 DUP2 ADD SWAP2 SWAP1 SWAP2 MSTORE PUSH1 0x40 SWAP1 DUP2 ADD PUSH1 0x0 SWAP1 DUP2 KECCAK256 SLOAD SWAP2 MLOAD PUSH1 0x1 PUSH1 0x1 PUSH1 0xA0 SHL SUB SWAP1 SWAP3 AND SWAP3 POP DUP3 SWAP2 SELFBALANCE DUP1 ISZERO PUSH2 0x8FC MUL SWAP3 SWAP1 SWAP2 SWAP1 DUP2 DUP2 DUP2 DUP6 DUP9 DUP9 CALL SWAP4 POP POP POP POP ISZERO DUP1 ISZERO PUSH2 0x39F JUMPI RETURNDATASIZE PUSH1 0x0 DUP1 RETURNDATACOPY RETURNDATASIZE PUSH1 0x0 REVERT JUMPDEST POP POP JUMP JUMPDEST PUSH1 0x1 PUSH1 0x1 PUSH1 0xA0 SHL SUB DUP2 AND PUSH1 0x0 SWAP1 DUP2 MSTORE PUSH1 0x5 PUSH1 0x20 MSTORE PUSH1 0x40 SWAP1 KECCAK256 SLOAD PUSH1 0xFF AND PUSH2 0x3FF JUMPI PUSH1 0x40 MLOAD PUSH3 0x461BCD PUSH1 0xE5 SHL DUP2 MSTORE PUSH1 0x20 PUSH1 0x4 DUP3 ADD MSTORE PUSH1 0x11 PUSH1 0x24 DUP3 ADD MSTORE PUSH17 0x139BDD0818481C185C9D1A58DA5C185B9D PUSH1 0x7A SHL PUSH1 0x44 DUP3 ADD MSTORE PUSH1 0x64 ADD PUSH2 0x30F JUMP JUMPDEST PUSH1 0x1 PUSH1 0x1 PUSH1 0xA0 SHL SUB DUP2 AND PUSH1 0x0 SWAP1 DUP2 MSTORE PUSH1 0x6 PUSH1 0x20 MSTORE PUSH1 0x40 SWAP1 KECCAK256 SLOAD PUSH2 0x46E JUMPI PUSH1 0x40 MLOAD PUSH3 0x461BCD PUSH1 0xE5 SHL DUP2 MSTORE PUSH1 0x20 PUSH1 0x4 DUP3 ADD MSTORE PUSH1 0x21 PUSH1 0x24 DUP3 ADD MSTORE PUSH32 0x4E6F20636F6E747269627574696F6E732066726F6D207061727469636970616E PUSH1 0x44 DUP3 ADD MSTORE PUSH1 0x1D PUSH1 0xFA SHL PUSH1 0x64 DUP3 ADD MSTORE PUSH1 0x84 ADD PUSH2 0x30F JUMP JUMPDEST PUSH1 0x1 PUSH1 0x1 PUSH1 0xA0 SHL SUB AND PUSH1 0x0 SWAP1 DUP2 MSTORE PUSH1 0x5 PUSH1 0x20 SWAP1 DUP2 MSTORE PUSH1 0x40 DUP1 DUP4 KECCAK256 DUP1 SLOAD PUSH1 0xFF NOT AND SWAP1 SSTORE PUSH1 0x6 SWAP1 SWAP2 MSTORE DUP2 KECCAK256 SSTORE JUMP JUMPDEST PUSH1 0x9 SLOAD PUSH1 0x40 DUP1 MLOAD PUSH4 0xDBDFF2C1 PUSH1 0xE0 SHL DUP2 MSTORE SWAP1 MLOAD PUSH1 0x0 SWAP3 PUSH1 0x1 PUSH1 0x1 PUSH1 0xA0 SHL SUB AND SWAP2 PUSH4 0xDBDFF2C1 SWAP2 PUSH1 0x4 DUP1 DUP4 ADD SWAP3 PUSH1 0x20 SWAP3 SWAP2 SWAP1 DUP3 SWAP1 SUB ADD DUP2 DUP7 GAS STATICCALL ISZERO DUP1 ISZERO PUSH2 0x4E4 JUMPI RETURNDATASIZE PUSH1 0x0 DUP1 RETURNDATACOPY RETURNDATASIZE PUSH1 0x0 REVERT JUMPDEST POP POP POP POP PUSH1 0x40 MLOAD RETURNDATASIZE PUSH1 0x1F NOT PUSH1 0x1F DUP3 ADD AND DUP3 ADD DUP1 PUSH1 0x40 MSTORE POP DUP2 ADD SWAP1 PUSH2 0x508 SWAP2 SWAP1 PUSH2 0x792 JUMP JUMPDEST SWAP1 POP PUSH1 0x0 PUSH1 0x2 SLOAD DUP3 PUSH2 0x51A SWAP2 SWAP1 PUSH2 0x7C1 JUMP JUMPDEST PUSH1 0x8 DUP1 SLOAD PUSH1 0x0 SWAP1 DUP2 MSTORE PUSH1 0x7 PUSH1 0x20 MSTORE PUSH1 0x40 DUP2 KECCAK256 DUP1 SLOAD PUSH1 0x1 PUSH1 0x1 PUSH1 0xA0 SHL SUB NOT AND PUSH1 0x1 PUSH1 0x1 PUSH1 0xA0 SHL SUB DUP6 AND OR SWAP1 SSTORE DUP2 SLOAD SWAP3 SWAP4 POP PUSH2 0x553 DUP4 PUSH2 0x7D5 JUMP JUMPDEST SWAP2 SWAP1 POP SSTORE POP POP POP JUMP JUMPDEST CALLER PUSH1 0x0 SWAP1 DUP2 MSTORE PUSH1 0x5 PUSH1 0x20 MSTORE PUSH1 0x40 SWAP1 KECCAK256 SLOAD PUSH1 0xFF AND PUSH2 0x5AF JUMPI PUSH1 0x40 MLOAD PUSH3 0x461BCD PUSH1 0xE5 SHL DUP2 MSTORE PUSH1 0x20 PUSH1 0x4 DUP3 ADD MSTORE PUSH1 0x11 PUSH1 0x24 DUP3 ADD MSTORE PUSH17 0x139BDD0818481C185C9D1A58DA5C185B9D PUSH1 0x7A SHL PUSH1 0x44 DUP3 ADD MSTORE PUSH1 0x64 ADD PUSH2 0x30F JUMP JUMPDEST PUSH1 0x1 SLOAD CALLVALUE EQ PUSH2 0x600 JUMPI PUSH1 0x40 MLOAD PUSH3 0x461BCD PUSH1 0xE5 SHL DUP2 MSTORE PUSH1 0x20 PUSH1 0x4 DUP3 ADD MSTORE PUSH1 0x1D PUSH1 0x24 DUP3 ADD MSTORE PUSH32 0x496E636F727265637420636F6E747269627574696F6E20616D6F756E74000000 PUSH1 0x44 DUP3 ADD MSTORE PUSH1 0x64 ADD PUSH2 0x30F JUMP JUMPDEST CALLER PUSH1 0x0 SWAP1 DUP2 MSTORE PUSH1 0x6 PUSH1 0x20 MSTORE PUSH1 0x40 DUP2 KECCAK256 DUP1 SLOAD CALLVALUE SWAP3 SWAP1 PUSH2 0x61F SWAP1 DUP5 SWAP1 PUSH2 0x7EE JUMP JUMPDEST SWAP3 POP POP DUP2 SWAP1 SSTORE POP CALLVALUE PUSH1 0x3 PUSH1 0x0 DUP3 DUP3 SLOAD PUSH2 0x638 SWAP2 SWAP1 PUSH2 0x7EE JUMP JUMPDEST SWAP3 POP POP DUP2 SWAP1 SSTORE POP PUSH1 0x64 PUSH1 0x0 SLOAD PUSH1 0x2 SLOAD PUSH1 0x1 SLOAD PUSH1 0x14 PUSH2 0x656 SWAP2 SWAP1 PUSH2 0x801 JUMP JUMPDEST PUSH2 0x660 SWAP2 SWAP1 PUSH2 0x801 JUMP JUMPDEST PUSH2 0x66A SWAP2 SWAP1 PUSH2 0x801 JUMP JUMPDEST PUSH2 0x674 SWAP2 SWAP1 PUSH2 0x818 JUMP JUMPDEST PUSH1 0x3 SLOAD GT PUSH2 0x6E3 JUMPI PUSH1 0xA SLOAD PUSH1 0x40 MLOAD PUSH4 0x40C10F19 PUSH1 0xE0 SHL DUP2 MSTORE CALLER PUSH1 0x4 DUP3 ADD MSTORE PUSH1 0x2 PUSH1 0x24 DUP3 ADD MSTORE PUSH1 0x1 PUSH1 0x1 PUSH1 0xA0 SHL SUB SWAP1 SWAP2 AND SWAP1 PUSH4 0x40C10F19 SWAP1 PUSH1 0x44 ADD JUMPDEST PUSH1 0x0 PUSH1 0x40 MLOAD DUP1 DUP4 SUB DUP2 PUSH1 0x0 DUP8 DUP1 EXTCODESIZE ISZERO DUP1 ISZERO PUSH2 0x6C9 JUMPI PUSH1 0x0 DUP1 REVERT JUMPDEST POP GAS CALL ISZERO DUP1 ISZERO PUSH2 0x6DD JUMPI RETURNDATASIZE PUSH1 0x0 DUP1 RETURNDATACOPY RETURNDATASIZE PUSH1 0x0 REVERT JUMPDEST POP POP POP POP JUMP JUMPDEST PUSH1 0xA SLOAD PUSH1 0x40 MLOAD PUSH4 0x40C10F19 PUSH1 0xE0 SHL DUP2 MSTORE CALLER PUSH1 0x4 DUP3 ADD MSTORE PUSH1 0x1 PUSH1 0x24 DUP3 ADD MSTORE PUSH1 0x1 PUSH1 0x1 PUSH1 0xA0 SHL SUB SWAP1 SWAP2 AND SWAP1 PUSH4 0x40C10F19 SWAP1 PUSH1 0x44 ADD PUSH2 0x6AF JUMP JUMPDEST PUSH1 0x0 PUSH1 0x20 DUP3 DUP5 SUB SLT ISZERO PUSH2 0x72C JUMPI PUSH1 0x0 DUP1 REVERT JUMPDEST DUP2 CALLDATALOAD PUSH1 0x1 PUSH1 0x1 PUSH1 0xA0 SHL SUB DUP2 AND DUP2 EQ PUSH2 0x743 JUMPI PUSH1 0x0 DUP1 REVERT JUMPDEST SWAP4 SWAP3 POP POP POP JUMP JUMPDEST PUSH1 0x0 PUSH1 0x20 DUP3 DUP5 SUB SLT ISZERO PUSH2 0x75C JUMPI PUSH1 0x0 DUP1 REVERT JUMPDEST POP CALLDATALOAD SWAP2 SWAP1 POP JUMP JUMPDEST PUSH4 0x4E487B71 PUSH1 0xE0 SHL PUSH1 0x0 MSTORE PUSH1 0x11 PUSH1 0x4 MSTORE PUSH1 0x24 PUSH1 0x0 REVERT JUMPDEST DUP2 DUP2 SUB DUP2 DUP2 GT ISZERO PUSH2 0x78C JUMPI PUSH2 0x78C PUSH2 0x763 JUMP JUMPDEST SWAP3 SWAP2 POP POP JUMP JUMPDEST PUSH1 0x0 PUSH1 0x20 DUP3 DUP5 SUB SLT ISZERO PUSH2 0x7A4 JUMPI PUSH1 0x0 DUP1 REVERT JUMPDEST POP MLOAD SWAP2 SWAP1 POP JUMP JUMPDEST PUSH4 0x4E487B71 PUSH1 0xE0 SHL PUSH1 0x0 MSTORE PUSH1 0x12 PUSH1 0x4 MSTORE PUSH1 0x24 PUSH1 0x0 REVERT JUMPDEST PUSH1 0x0 DUP3 PUSH2 0x7D0 JUMPI PUSH2 0x7D0 PUSH2 0x7AB JUMP JUMPDEST POP MOD SWAP1 JUMP JUMPDEST PUSH1 0x0 PUSH1 0x1 DUP3 ADD PUSH2 0x7E7 JUMPI PUSH2 0x7E7 PUSH2 0x763 JUMP JUMPDEST POP PUSH1 0x1 ADD SWAP1 JUMP JUMPDEST DUP1 DUP3 ADD DUP1 DUP3 GT ISZERO PUSH2 0x78C JUMPI PUSH2 0x78C PUSH2 0x763 JUMP JUMPDEST DUP1 DUP3 MUL DUP2 ISZERO DUP3 DUP3 DIV DUP5 EQ OR PUSH2 0x78C JUMPI PUSH2 0x78C PUSH2 0x763 JUMP JUMPDEST PUSH1 0x0 DUP3 PUSH2 0x827 JUMPI PUSH2 0x827 PUSH2 0x7AB JUMP JUMPDEST POP DIV SWAP1 JUMP INVALID LOG2 PUSH5 0x6970667358 0x22 SLT KECCAK256 SWAP6 LOG0 0xB2 DUP6 0xA9 STATICCALL 0xDF 0xBD 0x28 JUMP 0xD EQ 0x22 MULMOD LT PUSH23 0xEB7DD9E22F410AAD8B3C7767C2F940F64736F6C634300 ADDMOD SGT STOP CALLER PUSH1 0x80 PUSH1 0x40 MSTORE CALLVALUE DUP1 ISZERO PUSH1 0xF JUMPI PUSH1 0x0 DUP1 REVERT JUMPDEST POP PUSH1 0xB6 DUP1 PUSH2 0x1E PUSH1 0x0 CODECOPY PUSH1 0x0 RETURN INVALID PUSH1 0x80 PUSH1 0x40 MSTORE CALLVALUE DUP1 ISZERO PUSH1 0xF JUMPI PUSH1 0x0 DUP1 REVERT JUMPDEST POP PUSH1 0x4 CALLDATASIZE LT PUSH1 0x28 JUMPI PUSH1 0x0 CALLDATALOAD PUSH1 0xE0 SHR DUP1 PUSH4 0xDBDFF2C1 EQ PUSH1 0x2D JUMPI JUMPDEST PUSH1 0x0 DUP1 REVERT JUMPDEST PUSH1 0x33 PUSH1 0x45 JUMP JUMPDEST PUSH1 0x40 MLOAD SWAP1 DUP2 MSTORE PUSH1 0x20 ADD PUSH1 0x40 MLOAD DUP1 SWAP2 SUB SWAP1 RETURN JUMPDEST PUSH1 0x0 TIMESTAMP PREVRANDAO PUSH1 0x40 MLOAD PUSH1 0x20 ADD PUSH1 0x62 SWAP3 SWAP2 SWAP1 SWAP2 DUP3 MSTORE PUSH1 0x20 DUP3 ADD MSTORE PUSH1 0x40 ADD SWAP1 JUMP JUMPDEST PUSH1 0x40 MLOAD PUSH1 0x20 DUP2 DUP4 SUB SUB DUP2 MSTORE SWAP1 PUSH1 0x40 MSTORE DUP1 MLOAD SWAP1 PUSH1 0x20 ADD KECCAK256 PUSH1 0x0 SHR SWAP1 POP SWAP1 JUMP INVALID LOG2 PUSH5 0x6970667358 0x22 SLT KECCAK256 PUSH25 0x8362468021FF3567B31FB11279D067AC23F20CD106C01C608 SELFDESTRUCT SWAP7 0xEA PUSH2 0xFBA3 PUSH5 0x736F6C6343 STOP ADDMOD SGT STOP CALLER PUSH1 0x80 PUSH1 0x40 MSTORE CALLVALUE DUP1 ISZERO PUSH2 0x10 JUMPI PUSH1 0x0 DUP1 REVERT JUMPDEST POP PUSH2 0x178 DUP1 PUSH2 0x20 PUSH1 0x0 CODECOPY PUSH1 0x0 RETURN INVALID PUSH1 0x80 PUSH1 0x40 MSTORE CALLVALUE DUP1 ISZERO PUSH2 0x10 JUMPI PUSH1 0x0 DUP1 REVERT JUMPDEST POP PUSH1 0x4 CALLDATASIZE LT PUSH2 0x36 JUMPI PUSH1 0x0 CALLDATALOAD PUSH1 0xE0 SHR DUP1 PUSH4 0x27E235E3 EQ PUSH2 0x3B JUMPI DUP1 PUSH4 0x40C10F19 EQ PUSH2 0x6D JUMPI JUMPDEST PUSH1 0x0 DUP1 REVERT JUMPDEST PUSH2 0x5B PUSH2 0x49 CALLDATASIZE PUSH1 0x4 PUSH2 0xCF JUMP JUMPDEST PUSH1 0x0 PUSH1 0x20 DUP2 SWAP1 MSTORE SWAP1 DUP2 MSTORE PUSH1 0x40 SWAP1 KECCAK256 SLOAD DUP2 JUMP JUMPDEST PUSH1 0x40 MLOAD SWAP1 DUP2 MSTORE PUSH1 0x20 ADD PUSH1 0x40 MLOAD DUP1 SWAP2 SUB SWAP1 RETURN JUMPDEST PUSH2 0x80 PUSH2 0x7B CALLDATASIZE PUSH1 0x4 PUSH2 0xF1 JUMP JUMPDEST PUSH2 0x82 JUMP JUMPDEST STOP JUMPDEST PUSH1 0x1 PUSH1 0x1 PUSH1 0xA0 SHL SUB DUP3 AND PUSH1 0x0 SWAP1 DUP2 MSTORE PUSH1 0x20 DUP2 SWAP1 MSTORE PUSH1 0x40 DUP2 KECCAK256 DUP1 SLOAD DUP4 SWAP3 SWAP1 PUSH2 0xAA SWAP1 DUP5 SWAP1 PUSH2 0x11B JUMP JUMPDEST SWAP1 SWAP2 SSTORE POP POP POP POP JUMP JUMPDEST DUP1 CALLDATALOAD PUSH1 0x1 PUSH1 0x1 PUSH1 0xA0 SHL SUB DUP2 AND DUP2 EQ PUSH2 0xCA JUMPI PUSH1 0x0 DUP1 REVERT JUMPDEST SWAP2 SWAP1 POP JUMP JUMPDEST PUSH1 0x0 PUSH1 0x20 DUP3 DUP5 SUB SLT ISZERO PUSH2 0xE1 JUMPI PUSH1 0x0 DUP1 REVERT JUMPDEST PUSH2 0xEA DUP3 PUSH2 0xB3 JUMP JUMPDEST SWAP4 SWAP3 POP POP POP JUMP JUMPDEST PUSH1 0x0 DUP1 PUSH1 0x40 DUP4 DUP6 SUB SLT ISZERO PUSH2 0x104 JUMPI PUSH1 0x0 DUP1 REVERT JUMPDEST PUSH2 0x10D DUP4 PUSH2 0xB3 JUMP JUMPDEST SWAP5 PUSH1 0x20 SWAP4 SWAP1 SWAP4 ADD CALLDATALOAD SWAP4 POP POP POP JUMP JUMPDEST DUP1 DUP3 ADD DUP1 DUP3 GT ISZERO PUSH2 0x13C JUMPI PUSH4 0x4E487B71 PUSH1 0xE0 SHL PUSH1 0x0 MSTORE PUSH1 0x11 PUSH1 0x4 MSTORE PUSH1 0x24 PUSH1 0x0 REVERT JUMPDEST SWAP3 SWAP2 POP POP JUMP INVALID LOG2 PUSH5 0x6970667358 0x22 SLT KECCAK256 0xCA SWAP7 SWAP11 0x1F 0x2B 0xB3 SWAP8 SHL 0xAB PUSH18 0xF5A4B0845F4D80B7759F9F442E0B03CFE7EB 0xC1 0xDC RETURNDATACOPY 0xA5 PUSH5 0x736F6C6343 STOP ADDMOD SGT STOP CALLER LOG2 PUSH5 0x6970667358 0x22 SLT KECCAK256 0xD8 0xC2 0xF9 PUSH1 0xE5 SWAP16 0x2D 0xCA BASEFEE 0xE4 0xF6 0xCF GASPRICE 0xE4 PUSH14 0xBCA9171A5F5341F8C24003FC6407 0xE9 CREATE SWAP8 PUSH5 0x736F6C6343 STOP ADDMOD SGT STOP CALLER "},"methodIdentifiers":{"consorcioCount()":"bd15f9d4","consorcios(uint256)":"e6674399","contributeToConsorcio(uint256)":"4019c2f1","createConsorcio(uint256,uint256,uint256)":"634cf6d5","defaultParticipant(uint256,address)":"42784b2b","distributeFunds(uint256)":"f726f715","getConsorcioDetails(uint256)":"325b9aa0","joinConsorcio(uint256)":"2a354560","selectRecipient(uint256)":"896d4657"}}}}}