{"contracts/EnhancedConsorcioManager.sol":{"Token":{"abi":[{"inputs":[{"internalType":"address","name":"","type":"address"}],"name":"balances","outputs":[{"internalType":"uint256","name":"","type":"uint256"}],"stateMutability":"view","type":"function"},{"inputs":[{"internalType":"address","name":"to","type":"address"},{"internalType":"uint256","name":"amount","type":"uint256"}],"name":"mint","outputs":[],"stateMutability":"nonpayable","type":"function"}],"evm":{"bytecode":{"linkReferences":{},"object":"608060405234801561001057600080fd5b50610178806100206000396000f3fe608060405234801561001057600080fd5b50600436106100365760003560e01c806327e235e31461003b57806340c10f191461006d575b600080fd5b61005b6100493660046100cf565b60006020819052908152604090205481565b60405190815260200160405180910390f35b61008061007b3660046100f1565b610082565b005b6001600160a01b038216600090815260208190526040812080548392906100aa90849061011b565b90915550505050565b80356001600160a01b03811681146100ca57600080fd5b919050565b6000602082840312156100e157600080fd5b6100ea826100b3565b9392505050565b6000806040838503121561010457600080fd5b61010d836100b3565b946020939093013593505050565b8082018082111561013c57634e487b7160e01b600052601160045260246000fd5b9291505056fea2646970667358221220ca969a1f2bb3971bab71f5a4b0845f4d80b7759f9f442e0b03cfe7ebc1dc3ea564736f6c63430008130033","opcodes":"PUSH1 0x80 PUSH1 0x40 MSTORE CALLVALUE DUP1 ISZERO PUSH2 0x10 JUMPI PUSH1 0x0 DUP1 REVERT JUMPDEST POP PUSH2 0x178 DUP1 PUSH2 0x20 PUSH1 0x0 CODECOPY PUSH1 0x0 RETURN INVALID PUSH1 0x80 PUSH1 0x40 MSTORE CALLVALUE DUP1 ISZERO PUSH2 0x10 JUMPI PUSH1 0x0 DUP1 REVERT JUMPDEST POP PUSH1 0x4 CALLDATASIZE LT PUSH2 0x36 JUMPI PUSH1 0x0 CALLDATALOAD PUSH1 0xE0 SHR DUP1 PUSH4 0x27E235E3 EQ PUSH2 0x3B JUMPI DUP1 PUSH4 0x40C10F19 EQ PUSH2 0x6D JUMPI JUMPDEST PUSH1 0x0 DUP1 REVERT JUMPDEST PUSH2 0x5B PUSH2 0x49 CALLDATASIZE PUSH1 0x4 PUSH2 0xCF JUMP JUMPDEST PUSH1 0x0 PUSH1 0x20 DUP2 SWAP1 MSTORE SWAP1 DUP2 MSTORE PUSH1 0x40 SWAP1 KECCAK256 SLOAD DUP2 JUMP JUMPDEST PUSH1 0x40 MLOAD SWAP1 DUP2 MSTORE PUSH1 0x20 ADD PUSH1 0x40 MLOAD DUP1 SWAP2 SUB SWAP1 RETURN JUMPDEST PUSH2 0x80 PUSH2 0x7B CALLDATASIZE PUSH1 0x4 PUSH2 0xF1 JUMP JUMPDEST PUSH2 0x82 JUMP JUMPDEST STOP JUMPDEST PUSH1 0x1 PUSH1 0x1 PUSH1 0xA0 SHL SUB DUP3 AND PUSH1 0x0 SWAP1 DUP2 MSTORE PUSH1 0x20 DUP2 SWAP1 MSTORE PUSH1 0x40 DUP2 KECCAK256 DUP1 SLOAD DUP4 SWAP3 SWAP1 PUSH2 0xAA SWAP1 DUP5 SWAP1 PUSH2 0x11B JUMP JUMPDEST SWAP1 SWAP2 SSTORE POP POP POP POP JUMP JUMPDEST DUP1 CALLDATALOAD PUSH1 0x1 PUSH1 0x1 PUSH1 0xA0 SHL SUB DUP2 AND DUP2 EQ PUSH2 0xCA JUMPI PUSH1 0x0 DUP1 REVERT JUMPDEST SWAP2 SWAP1 POP JUMP JUMPDEST PUSH1 0x0 PUSH1 0x20 DUP3 DUP5 SUB SLT ISZERO PUSH2 0xE1 JUMPI PUSH1 0x0 DUP1 REVERT JUMPDEST PUSH2 0xEA DUP3 PUSH2 0xB3 JUMP JUMPDEST SWAP4 SWAP3 POP POP POP JUMP JUMPDEST PUSH1 0x0 DUP1 PUSH1 0x40 DUP4 DUP6 SUB SLT ISZERO PUSH2 0x104 JUMPI PUSH1 0x0 DUP1 REVERT JUMPDEST PUSH2 0x10D DUP4 PUSH2 0xB3 JUMP JUMPDEST SWAP5 PUSH1 0x20 SWAP4 SWAP1 SWAP4 ADD CALLDATALOAD SWAP4 POP POP POP JUMP JUMPDEST DUP1 DUP3 ADD DUP1 DUP3 GT ISZERO PUSH2 0x13C JUMPI PUSH4 0x4E487B71 PUSH1 0xE0 SHL PUSH1 0x0 MSTORE PUSH1 0x11 PUSH1 0x4 MSTORE PUSH1 0x24 PUSH1 0x0 REVERT JUMPDEST SWAP3 SWAP2 POP POP JUMP INVALID LOG2 PUSH5 0x6970667358 0x22 SLT KECCAK256 0xCA SWAP7 SWAP11 0x1F 0x2B 0xB3 SWAP8 SHL 0xAB PUSH18 0xF5A4B0845F4D80B7759F9F442E0B03CFE7EB 0xC1 0xDC RETURNDATACOPY 0xA5 PUSH5 0x736F6C6343 STOP ADDMOD SGT STOP CALLER "},"methodIdentifiers":{"balances(address)":"27e235e3","mint(address,uint256)":"40c10f19"}}}}}