{
  "_format": "hh-sol-artifact-1",
  "contractName": "EnhancedConsorcio",
  "sourceName": "contracts/EnhancedConsorcioManager.sol",
  "abi": [
    {
      "inputs": [
        {
          "internalType": "uint256",
          "name": "_duration",
          "type": "uint256"
        },
        {
          "internalType": "uint256",
          "name": "_contributionAmount",
          "type": "uint256"
        },
        {
          "internalType": "uint256",
          "name": "_participantCount",
          "type": "uint256"
        },
        {
          "internalType": "address",
          "name": "_manager",
          "type": "address"
        }
      ],
      "stateMutability": "nonpayable",
      "type": "constructor"
    },
    {
      "inputs": [],
      "name": "contribute",
      "outputs": [],
      "stateMutability": "payable",
      "type": "function"
    },
    {
      "inputs": [],
      "name": "contributionAmount",
      "outputs": [
        {
          "internalType": "uint256",
          "name": "",
          "type": "uint256"
        }
      ],
      "stateMutability": "view",
      "type": "function"
    },
    {
      "inputs": [
        {
          "internalType": "address",
          "name": "",
          "type": "address"
        }
      ],
      "name": "contributions",
      "outputs": [
        {
          "internalType": "uint256",
          "name": "",
          "type": "uint256"
        }
      ],
      "stateMutability": "view",
      "type": "function"
    },
    {
      "inputs": [],
      "name": "currentMonth",
      "outputs": [
        {
          "internalType": "uint256",
          "name": "",
          "type": "uint256"
        }
      ],
      "stateMutability": "view",
      "type": "function"
    },
    {
      "inputs": [
        {
          "internalType": "address",
          "name": "participant",
          "type": "address"
        }
      ],
      "name": "defaultParticipant",
      "outputs": [],
      "stateMutability": "nonpayable",
      "type": "function"
    },
    {
      "inputs": [],
      "name": "distributeFunds",
      "outputs": [],
      "stateMutability": "nonpayable",
      "type": "function"
    },
    {
      "inputs": [],
      "name": "duration",
      "outputs": [
        {
          "internalType": "uint256",
          "name": "",
          "type": "uint256"
        }
      ],
      "stateMutability": "view",
      "type": "function"
    },
    {
      "inputs": [
        {
          "internalType": "address",
          "name": "participant",
          "type": "address"
        }
      ],
      "name": "join",
      "outputs": [],
      "stateMutability": "nonpayable",
      "type": "function"
    },
    {
      "inputs": [],
      "name": "manager",
      "outputs": [
        {
          "internalType": "address",
          "name": "",
          "type": "address"
        }
      ],
      "stateMutability": "view",
      "type": "function"
    },
    {
      "inputs": [],
      "name": "participantCount",
      "outputs": [
        {
          "internalType": "uint256",
          "name": "",
          "type": "uint256"
        }
      ],
      "stateMutability": "view",
      "type": "function"
    },
    {
      "inputs": [
        {
          "internalType": "address",
          "name": "",
          "type": "address"
        }
      ],
      "name": "participants",
      "outputs": [
        {
          "internalType": "bool",
          "name": "",
          "type": "bool"
        }
      ],
      "stateMutability": "view",
      "type": "function"
    },
    {
      "inputs": [
        {
          "internalType": "uint256",
          "name": "",
          "type": "uint256"
        }
      ],
      "name": "recipients",
      "outputs": [
        {
          "internalType": "address",
          "name": "",
          "type": "address"
        }
      ],
      "stateMutability": "view",
      "type": "function"
    },
    {
      "inputs": [],
      "name": "selectRecipient",
      "outputs": [],
      "stateMutability": "nonpayable",
      "type": "function"
    },
    {
      "inputs": [],
      "name": "totalFunds",
      "outputs": [
        {
          "internalType": "uint256",
          "name": "",
          "type": "uint256"
        }
      ],
      "stateMutability": "view",
      "type": "function"
    }
  ],
  "bytecode": "0x608060405234801561001057600080fd5b50604051610c3a380380610c3a83398101604081905261002f9161010e565b600084905560018390556002829055600480546001600160a01b0319166001600160a01b038316179055604051610065906100f5565b604051809103906000f080158015610081573d6000803e3d6000fd5b50600980546001600160a01b0319166001600160a01b03929092169190911790556040516100ae90610101565b604051809103906000f0801580156100ca573d6000803e3d6000fd5b50600a80546001600160a01b0319166001600160a01b03929092169190911790555061015d92505050565b60d4806109ce83390190565b61019880610aa283390190565b6000806000806080858703121561012457600080fd5b845160208601516040870151606088015192965090945092506001600160a01b038116811461015257600080fd5b939692955090935050565b6108628061016c6000396000f3fe6080604052600436106100dd5760003560e01c80635fa0b65f1161007f578063862a4d4711610059578063862a4d4714610248578063968ed6001461025e578063d1bc76a114610274578063d7bb99ba146102aa57600080fd5b80635fa0b65f146101fd57806368ae0d8514610213578063691b918f1461023357600080fd5b8063362f04c0116100bb578063362f04c01461016d5780633a6a4d2e1461018357806342e94c9014610198578063481c6a75146101c557600080fd5b806309e69ede146100e25780630fb5a6b41461012757806328ffe6c81461014b575b600080fd5b3480156100ee57600080fd5b506101126100fd36600461071a565b60056020526000908152604090205460ff1681565b60405190151581526020015b60405180910390f35b34801561013357600080fd5b5061013d60005481565b60405190815260200161011e565b34801561015757600080fd5b5061016b61016636600461071a565b6102b2565b005b34801561017957600080fd5b5061013d60025481565b34801561018f57600080fd5b5061016b61033c565b3480156101a457600080fd5b5061013d6101b336600461071a565b60066020526000908152604090205481565b3480156101d157600080fd5b506004546101e5906001600160a01b031681565b6040516001600160a01b03909116815260200161011e565b34801561020957600080fd5b5061013d60015481565b34801561021f57600080fd5b5061016b61022e36600461071a565b6103a3565b34801561023f57600080fd5b5061016b61049a565b34801561025457600080fd5b5061013d60085481565b34801561026a57600080fd5b5061013d60035481565b34801561028057600080fd5b506101e561028f36600461074a565b6007602052600090815260409020546001600160a01b031681565b61016b61055c565b6001600160a01b03811660009081526005602052604090205460ff16156103185760405162461bcd60e51b8152602060048201526015602482015274105b1c9958591e4818481c185c9d1a58da5c185b9d605a1b60448201526064015b60405180910390fd5b6001600160a01b03166000908152600560205260409020805460ff19166001179055565b60006007600060016008546103519190610779565b81526020810191909152604090810160009081205491516001600160a01b03909216925082914780156108fc0292909190818181858888f1935050505015801561039f573d6000803e3d6000fd5b5050565b6001600160a01b03811660009081526005602052604090205460ff166103ff5760405162461bcd60e51b8152602060048201526011602482015270139bdd0818481c185c9d1a58da5c185b9d607a1b604482015260640161030f565b6001600160a01b03811660009081526006602052604090205461046e5760405162461bcd60e51b815260206004820152602160248201527f4e6f20636f6e747269627574696f6e732066726f6d207061727469636970616e6044820152601d60fa1b606482015260840161030f565b6001600160a01b03166000908152600560209081526040808320805460ff191690556006909152812055565b6009546040805163dbdff2c160e01b815290516000926001600160a01b03169163dbdff2c19160048083019260209291908290030181865afa1580156104e4573d6000803e3d6000fd5b505050506040513d601f19601f820116820180604052508101906105089190610792565b905060006002548261051a91906107c1565b60088054600090815260076020526040812080546001600160a01b0319166001600160a01b0385161790558154929350610553836107d5565b91905055505050565b3360009081526005602052604090205460ff166105af5760405162461bcd60e51b8152602060048201526011602482015270139bdd0818481c185c9d1a58da5c185b9d607a1b604482015260640161030f565b60015434146106005760405162461bcd60e51b815260206004820152601d60248201527f496e636f727265637420636f6e747269627574696f6e20616d6f756e74000000604482015260640161030f565b336000908152600660205260408120805434929061061f9084906107ee565b92505081905550346003600082825461063891906107ee565b92505081905550606460005460025460015460146106569190610801565b6106609190610801565b61066a9190610801565b6106749190610818565b600354116106e357600a546040516340c10f1960e01b8152336004820152600260248201526001600160a01b03909116906340c10f19906044015b600060405180830381600087803b1580156106c957600080fd5b505af11580156106dd573d6000803e3d6000fd5b50505050565b600a546040516340c10f1960e01b8152336004820152600160248201526001600160a01b03909116906340c10f19906044016106af565b60006020828403121561072c57600080fd5b81356001600160a01b038116811461074357600080fd5b9392505050565b60006020828403121561075c57600080fd5b5035919050565b634e487b7160e01b600052601160045260246000fd5b8181038181111561078c5761078c610763565b92915050565b6000602082840312156107a457600080fd5b5051919050565b634e487b7160e01b600052601260045260246000fd5b6000826107d0576107d06107ab565b500690565b6000600182016107e7576107e7610763565b5060010190565b8082018082111561078c5761078c610763565b808202811582820484141761078c5761078c610763565b600082610827576108276107ab565b50049056fea264697066735822122095a0b285a9fadfbd28560d14220910760eb7dd9e22f410aad8b3c7767c2f940f64736f6c634300081300336080604052348015600f57600080fd5b5060b68061001e6000396000f3fe6080604052348015600f57600080fd5b506004361060285760003560e01c8063dbdff2c114602d575b600080fd5b60336045565b60405190815260200160405180910390f35b600042446040516020016062929190918252602082015260400190565b6040516020818303038152906040528051906020012060001c90509056fea26469706673582212207808362468021ff3567b31fb11279d067ac23f20cd106c01c608ff96ea61fba364736f6c63430008130033608060405234801561001057600080fd5b50610178806100206000396000f3fe608060405234801561001057600080fd5b50600436106100365760003560e01c806327e235e31461003b57806340c10f191461006d575b600080fd5b61005b6100493660046100cf565b60006020819052908152604090205481565b60405190815260200160405180910390f35b61008061007b3660046100f1565b610082565b005b6001600160a01b038216600090815260208190526040812080548392906100aa90849061011b565b90915550505050565b80356001600160a01b03811681146100ca57600080fd5b919050565b6000602082840312156100e157600080fd5b6100ea826100b3565b9392505050565b6000806040838503121561010457600080fd5b61010d836100b3565b946020939093013593505050565b8082018082111561013c57634e487b7160e01b600052601160045260246000fd5b9291505056fea2646970667358221220ca969a1f2bb3971bab71f5a4b0845f4d80b7759f9f442e0b03cfe7ebc1dc3ea564736f6c63430008130033",
  "linkReferences": {},
  "deployedLinkReferences": {}
}