{
  "_format": "hh-sol-artifact-1",
  "contractName": "EnhancedConsorcioManager",
  "sourceName": "contracts/EnhancedConsorcioManager.sol",
  "abi": [
    {
      "anonymous": false,
      "inputs": [
        {
          "indexed": true,
          "internalType": "uint256",
          "name": "consorcioId",
          "type": "uint256"
        },
        {
          "indexed": false,
          "internalType": "address",
          "name": "consorcioAddress",
          "type": "address"
        }
      ],
      "name": "ConsorcioCreated",
      "type": "event"
    },
    {
      "anonymous": false,
      "inputs": [
        {
          "indexed": true,
          "internalType": "uint256",
          "name": "consorcioId",
          "type": "uint256"
        },
        {
          "indexed": false,
          "internalType": "address",
          "name": "participant",
          "type": "address"
        },
        {
          "indexed": false,
          "internalType": "uint256",
          "name": "amount",
          "type": "uint256"
        }
      ],
      "name": "ContributionMade",
      "type": "event"
    },
    {
      "anonymous": false,
      "inputs": [
        {
          "indexed": true,
          "internalType": "uint256",
          "name": "consorcioId",
          "type": "uint256"
        },
        {
          "indexed": false,
          "internalType": "address",
          "name": "recipient",
          "type": "address"
        },
        {
          "indexed": false,
          "internalType": "uint256",
          "name": "amount",
          "type": "uint256"
        }
      ],
      "name": "FundsDistributed",
      "type": "event"
    },
    {
      "anonymous": false,
      "inputs": [
        {
          "indexed": true,
          "internalType": "uint256",
          "name": "consorcioId",
          "type": "uint256"
        },
        {
          "indexed": false,
          "internalType": "address",
          "name": "participant",
          "type": "address"
        }
      ],
      "name": "ParticipantDefaulted",
      "type": "event"
    },
    {
      "anonymous": false,
      "inputs": [
        {
          "indexed": true,
          "internalType": "uint256",
          "name": "consorcioId",
          "type": "uint256"
        },
        {
          "indexed": false,
          "internalType": "address",
          "name": "participant",
          "type": "address"
        }
      ],
      "name": "ParticipantJoined",
      "type": "event"
    },
    {
      "anonymous": false,
      "inputs": [
        {
          "indexed": true,
          "internalType": "uint256",
          "name": "consorcioId",
          "type": "uint256"
        },
        {
          "indexed": false,
          "internalType": "address",
          "name": "recipient",
          "type": "address"
        }
      ],
      "name": "RecipientSelected",
      "type": "event"
    },
    {
      "inputs": [],
      "name": "consorcioCount",
      "outputs": [
        {
          "internalType": "uint256",
          "name": "",
          "type": "uint256"
        }
      ],
      "stateMutability": "view",
      "type": "function"
    },
    {
      "inputs": [
        {
          "internalType": "uint256",
          "name": "",
          "type": "uint256"
        }
      ],
      "name": "consorcios",
      "outputs": [
        {
          "internalType": "address",
          "name": "",
          "type": "address"
        }
      ],
      "stateMutability": "view",
      "type": "function"
    },
    {
      "inputs": [
        {
          "internalType": "uint256",
          "name": "consorcioId",
          "type": "uint256"
        }
      ],
      "name": "contributeToConsorcio",
      "outputs": [],
      "stateMutability": "payable",
      "type": "function"
    },
    {
      "inputs": [
        {
          "internalType": "uint256",
          "name": "duration",
          "type": "uint256"
        },
        {
          "internalType": "uint256",
          "name": "contributionAmount",
          "type": "uint256"
        },
        {
          "internalType": "uint256",
          "name": "participantCount",
          "type": "uint256"
        }
      ],
      "name": "createConsorcio",
      "outputs": [],
      "stateMutability": "nonpayable",
      "type": "function"
    },
    {
      "inputs": [
        {
          "internalType": "uint256",
          "name": "consorcioId",
          "type": "uint256"
        },
        {
          "internalType": "address",
          "name": "participant",
          "type": "address"
        }
      ],
      "name": "defaultParticipant",
      "outputs": [],
      "stateMutability": "nonpayable",
      "type": "function"
    },
    {
      "inputs": [
        {
          "internalType": "uint256",
          "name": "consorcioId",
          "type": "uint256"
        }
      ],
      "name": "distributeFunds",
      "outputs": [],
      "stateMutability": "nonpayable",
      "type": "function"
    },
    {
      "inputs": [
        {
          "internalType": "uint256",
          "name": "consorcioId",
          "type": "uint256"
        }
      ],
      "name": "getConsorcioDetails",
      "outputs": [
        {
          "internalType": "address",
          "name": "",
          "type": "address"
        }
      ],
      "stateMutability": "view",
      "type": "function"
    },
    {
      "inputs": [
        {
          "internalType": "uint256",
          "name": "consorcioId",
          "type": "uint256"
        }
      ],
      "name": "joinConsorcio",
      "outputs": [],
      "stateMutability": "nonpayable",
      "type": "function"
    },
    {
      "inputs": [
        {
          "internalType": "uint256",
          "name": "consorcioId",
          "type": "uint256"
        }
      ],
      "name": "selectRecipient",
      "outputs": [],
      "stateMutability": "nonpayable",
      "type": "function"
    }
  ],
  "bytecode": "0x608060405234801561001057600080fd5b50611564806100206000396000f3fe6080604052600436106100865760003560e01c8063634cf6d511610059578063634cf6d514610133578063896d465714610153578063bd15f9d414610173578063e667439914610197578063f726f715146101cd57600080fd5b80632a3545601461008b578063325b9aa0146100ad5780634019c2f11461010057806342784b2b14610113575b600080fd5b34801561009757600080fd5b506100ab6100a63660046107e2565b6101ed565b005b3480156100b957600080fd5b506100e36100c83660046107e2565b6000908152602081905260409020546001600160a01b031690565b6040516001600160a01b0390911681526020015b60405180910390f35b6100ab61010e3660046107e2565b610290565b34801561011f57600080fd5b506100ab61012e366004610813565b61032f565b34801561013f57600080fd5b506100ab61014e366004610843565b6103de565b34801561015f57600080fd5b506100ab61016e3660046107e2565b6104af565b34801561017f57600080fd5b5061018960015481565b6040519081526020016100f7565b3480156101a357600080fd5b506100e36101b23660046107e2565b6000602081905290815260409020546001600160a01b031681565b3480156101d957600080fd5b506100ab6101e83660046107e2565b61063b565b6000818152602081905260409081902054905163051ffcd960e31b81523360048201526001600160a01b03909116906328ffe6c890602401600060405180830381600087803b15801561023f57600080fd5b505af1158015610253573d6000803e3d6000fd5b50506040513381528392507f7dd8cb04159701bc1976c246434d7d96812782e7489e6c5c34db49a388fe9e8091506020015b60405180910390a250565b600081815260208190526040808220548151636bddccdd60e11b815291516001600160a01b039091169263d7bb99ba9234926004808301939282900301818588803b1580156102de57600080fd5b505af11580156102f2573d6000803e3d6000fd5b5050604080513381523460208201528594507f0a4a91237423e0a1766a761c7cb029311d8b95d6b1b81db1b949a70c98b4e08e9350019050610285565b600082815260208190526040908190205490516368ae0d8560e01b81526001600160a01b038381166004830152909116906368ae0d8590602401600060405180830381600087803b15801561038357600080fd5b505af1158015610397573d6000803e3d6000fd5b50506040516001600160a01b03841681528492507fe140124f017b7ec0e2872db65721977f1b797d5e791f3bf52de0e369d6df2c0891506020015b60405180910390a25050565b6000838383336040516103f0906107d5565b938452602084019290925260408301526001600160a01b03166060820152608001604051809103906000f08015801561042d573d6000803e3d6000fd5b50600180546000908152602081815260409182902080546001600160a01b0319166001600160a01b03861690811790915592549151928352929350917fa73b551d9bfeb14727f63ef274d936883e7af2425e52209b279c34b1a0c475c1910160405180910390a2600180549060006104a483610885565b919050555050505050565b60008181526020819052604080822054815163691b918f60e01b815291516001600160a01b039091169263691b918f926004808201939182900301818387803b1580156104fb57600080fd5b505af115801561050f573d6000803e3d6000fd5b50505060008281526020818152604080832054815163862a4d4760e01b815291519394506001600160a01b03169263d1bc76a192600192859263862a4d47926004808401939192918290030181865afa158015610570573d6000803e3d6000fd5b505050506040513d601f19601f82011682018060405250810190610594919061089e565b61059e91906108b7565b6040518263ffffffff1660e01b81526004016105bc91815260200190565b602060405180830381865afa1580156105d9573d6000803e3d6000fd5b505050506040513d601f19601f820116820180604052508101906105fd91906108d0565b6040516001600160a01b038216815290915082907f96bbccc53338416ebe474b9e31f9b925b760a1e47dc67937de48ab9aa7a47e3e906020016103d2565b60008181526020818152604080832054815163862a4d4760e01b815291516001600160a01b039091169263d1bc76a192600192859263862a4d4792600480820193918290030181865afa158015610696573d6000803e3d6000fd5b505050506040513d601f19601f820116820180604052508101906106ba919061089e565b6106c491906108b7565b6040518263ffffffff1660e01b81526004016106e291815260200190565b602060405180830381865afa1580156106ff573d6000803e3d6000fd5b505050506040513d601f19601f8201168201806040525081019061072391906108d0565b600083815260208190526040808220548151631d35269760e11b815291519394506001600160a01b03168031939092633a6a4d2e926004808201939182900301818387803b15801561077457600080fd5b505af1158015610788573d6000803e3d6000fd5b5050604080516001600160a01b0386168152602081018590528693507f9f5926601e7fc353505f05fae61282ae5d67b716f95656849456e6aa7bbbbb5f92500160405180910390a2505050565b610c3a806108f583390190565b6000602082840312156107f457600080fd5b5035919050565b6001600160a01b038116811461081057600080fd5b50565b6000806040838503121561082657600080fd5b823591506020830135610838816107fb565b809150509250929050565b60008060006060848603121561085857600080fd5b505081359360208301359350604090920135919050565b634e487b7160e01b600052601160045260246000fd5b6000600182016108975761089761086f565b5060010190565b6000602082840312156108b057600080fd5b5051919050565b818103818111156108ca576108ca61086f565b92915050565b6000602082840312156108e257600080fd5b81516108ed816107fb565b939250505056fe608060405234801561001057600080fd5b50604051610c3a380380610c3a83398101604081905261002f9161010e565b600084905560018390556002829055600480546001600160a01b0319166001600160a01b038316179055604051610065906100f5565b604051809103906000f080158015610081573d6000803e3d6000fd5b50600980546001600160a01b0319166001600160a01b03929092169190911790556040516100ae90610101565b604051809103906000f0801580156100ca573d6000803e3d6000fd5b50600a80546001600160a01b0319166001600160a01b03929092169190911790555061015d92505050565b60d4806109ce83390190565b61019880610aa283390190565b6000806000806080858703121561012457600080fd5b845160208601516040870151606088015192965090945092506001600160a01b038116811461015257600080fd5b939692955090935050565b6108628061016c6000396000f3fe6080604052600436106100dd5760003560e01c80635fa0b65f1161007f578063862a4d4711610059578063862a4d4714610248578063968ed6001461025e578063d1bc76a114610274578063d7bb99ba146102aa57600080fd5b80635fa0b65f146101fd57806368ae0d8514610213578063691b918f1461023357600080fd5b8063362f04c0116100bb578063362f04c01461016d5780633a6a4d2e1461018357806342e94c9014610198578063481c6a75146101c557600080fd5b806309e69ede146100e25780630fb5a6b41461012757806328ffe6c81461014b575b600080fd5b3480156100ee57600080fd5b506101126100fd36600461071a565b60056020526000908152604090205460ff1681565b60405190151581526020015b60405180910390f35b34801561013357600080fd5b5061013d60005481565b60405190815260200161011e565b34801561015757600080fd5b5061016b61016636600461071a565b6102b2565b005b34801561017957600080fd5b5061013d60025481565b34801561018f57600080fd5b5061016b61033c565b3480156101a457600080fd5b5061013d6101b336600461071a565b60066020526000908152604090205481565b3480156101d157600080fd5b506004546101e5906001600160a01b031681565b6040516001600160a01b03909116815260200161011e565b34801561020957600080fd5b5061013d60015481565b34801561021f57600080fd5b5061016b61022e36600461071a565b6103a3565b34801561023f57600080fd5b5061016b61049a565b34801561025457600080fd5b5061013d60085481565b34801561026a57600080fd5b5061013d60035481565b34801561028057600080fd5b506101e561028f36600461074a565b6007602052600090815260409020546001600160a01b031681565b61016b61055c565b6001600160a01b03811660009081526005602052604090205460ff16156103185760405162461bcd60e51b8152602060048201526015602482015274105b1c9958591e4818481c185c9d1a58da5c185b9d605a1b60448201526064015b60405180910390fd5b6001600160a01b03166000908152600560205260409020805460ff19166001179055565b60006007600060016008546103519190610779565b81526020810191909152604090810160009081205491516001600160a01b03909216925082914780156108fc0292909190818181858888f1935050505015801561039f573d6000803e3d6000fd5b5050565b6001600160a01b03811660009081526005602052604090205460ff166103ff5760405162461bcd60e51b8152602060048201526011602482015270139bdd0818481c185c9d1a58da5c185b9d607a1b604482015260640161030f565b6001600160a01b03811660009081526006602052604090205461046e5760405162461bcd60e51b815260206004820152602160248201527f4e6f20636f6e747269627574696f6e732066726f6d207061727469636970616e6044820152601d60fa1b606482015260840161030f565b6001600160a01b03166000908152600560209081526040808320805460ff191690556006909152812055565b6009546040805163dbdff2c160e01b815290516000926001600160a01b03169163dbdff2c19160048083019260209291908290030181865afa1580156104e4573d6000803e3d6000fd5b505050506040513d601f19601f820116820180604052508101906105089190610792565b905060006002548261051a91906107c1565b60088054600090815260076020526040812080546001600160a01b0319166001600160a01b0385161790558154929350610553836107d5565b91905055505050565b3360009081526005602052604090205460ff166105af5760405162461bcd60e51b8152602060048201526011602482015270139bdd0818481c185c9d1a58da5c185b9d607a1b604482015260640161030f565b60015434146106005760405162461bcd60e51b815260206004820152601d60248201527f496e636f727265637420636f6e747269627574696f6e20616d6f756e74000000604482015260640161030f565b336000908152600660205260408120805434929061061f9084906107ee565b92505081905550346003600082825461063891906107ee565b92505081905550606460005460025460015460146106569190610801565b6106609190610801565b61066a9190610801565b6106749190610818565b600354116106e357600a546040516340c10f1960e01b8152336004820152600260248201526001600160a01b03909116906340c10f19906044015b600060405180830381600087803b1580156106c957600080fd5b505af11580156106dd573d6000803e3d6000fd5b50505050565b600a546040516340c10f1960e01b8152336004820152600160248201526001600160a01b03909116906340c10f19906044016106af565b60006020828403121561072c57600080fd5b81356001600160a01b038116811461074357600080fd5b9392505050565b60006020828403121561075c57600080fd5b5035919050565b634e487b7160e01b600052601160045260246000fd5b8181038181111561078c5761078c610763565b92915050565b6000602082840312156107a457600080fd5b5051919050565b634e487b7160e01b600052601260045260246000fd5b6000826107d0576107d06107ab565b500690565b6000600182016107e7576107e7610763565b5060010190565b8082018082111561078c5761078c610763565b808202811582820484141761078c5761078c610763565b600082610827576108276107ab565b50049056fea264697066735822122095a0b285a9fadfbd28560d14220910760eb7dd9e22f410aad8b3c7767c2f940f64736f6c634300081300336080604052348015600f57600080fd5b5060b68061001e6000396000f3fe6080604052348015600f57600080fd5b506004361060285760003560e01c8063dbdff2c114602d575b600080fd5b60336045565b60405190815260200160405180910390f35b600042446040516020016062929190918252602082015260400190565b6040516020818303038152906040528051906020012060001c90509056fea26469706673582212207808362468021ff3567b31fb11279d067ac23f20cd106c01c608ff96ea61fba364736f6c63430008130033608060405234801561001057600080fd5b50610178806100206000396000f3fe608060405234801561001057600080fd5b50600436106100365760003560e01c806327e235e31461003b57806340c10f191461006d575b600080fd5b61005b6100493660046100cf565b60006020819052908152604090205481565b60405190815260200160405180910390f35b61008061007b3660046100f1565b610082565b005b6001600160a01b038216600090815260208190526040812080548392906100aa90849061011b565b90915550505050565b80356001600160a01b03811681146100ca57600080fd5b919050565b6000602082840312156100e157600080fd5b6100ea826100b3565b9392505050565b6000806040838503121561010457600080fd5b61010d836100b3565b946020939093013593505050565b8082018082111561013c57634e487b7160e01b600052601160045260246000fd5b9291505056fea2646970667358221220ca969a1f2bb3971bab71f5a4b0845f4d80b7759f9f442e0b03cfe7ebc1dc3ea564736f6c63430008130033a2646970667358221220d8c2f960e59f2dca48e4f6cf3ae46dbca9171a5f5341f8c24003fc6407e9f09764736f6c63430008130033",
  "linkReferences": {},
  "deployedLinkReferences": {}
}