{
  "_format": "hh-sol-artifact-1",
  "contractName": "RandomNumberOracle",
  "sourceName": "contracts/EnhancedConsorcioManager.sol",
  "abi": [
    {
      "inputs": [],
      "name": "getRandomNumber",
      "outputs": [
        {
          "internalType": "uint256",
          "name": "",
          "type": "uint256"
        }
      ],
      "stateMutability": "view",
      "type": "function"
    }
  ],
  "bytecode": "0x6080604052348015600f57600080fd5b5060b68061001e6000396000f3fe6080604052348015600f57600080fd5b506004361060285760003560e01c8063dbdff2c114602d575b600080fd5b60336045565b60405190815260200160405180910390f35b600042446040516020016062929190918252602082015260400190565b6040516020818303038152906040528051906020012060001c90509056fea26469706673582212207808362468021ff3567b31fb11279d067ac23f20cd106c01c608ff96ea61fba364736f6c63430008130033",
  "linkReferences": {},
  "deployedLinkReferences": {}
}