{
  "_format": "hh-sol-artifact-1",
  "contractName": "Token",
  "sourceName": "contracts/EnhancedConsorcioManager.sol",
  "abi": [
    {
      "inputs": [
        {
          "internalType": "address",
          "name": "",
          "type": "address"
        }
      ],
      "name": "balances",
      "outputs": [
        {
          "internalType": "uint256",
          "name": "",
          "type": "uint256"
        }
      ],
      "stateMutability": "view",
      "type": "function"
    },
    {
      "inputs": [
        {
          "internalType": "address",
          "name": "to",
          "type": "address"
        },
        {
          "internalType": "uint256",
          "name": "amount",
          "type": "uint256"
        }
      ],
      "name": "mint",
      "outputs": [],
      "stateMutability": "nonpayable",
      "type": "function"
    }
  ],
  "bytecode": "0x608060405234801561001057600080fd5b50610178806100206000396000f3fe608060405234801561001057600080fd5b50600436106100365760003560e01c806327e235e31461003b57806340c10f191461006d575b600080fd5b61005b6100493660046100cf565b60006020819052908152604090205481565b60405190815260200160405180910390f35b61008061007b3660046100f1565b610082565b005b6001600160a01b038216600090815260208190526040812080548392906100aa90849061011b565b90915550505050565b80356001600160a01b03811681146100ca57600080fd5b919050565b6000602082840312156100e157600080fd5b6100ea826100b3565b9392505050565b6000806040838503121561010457600080fd5b61010d836100b3565b946020939093013593505050565b8082018082111561013c57634e487b7160e01b600052601160045260246000fd5b9291505056fea2646970667358221220ca969a1f2bb3971bab71f5a4b0845f4d80b7759f9f442e0b03cfe7ebc1dc3ea564736f6c63430008130033",
  "linkReferences": {},
  "deployedLinkReferences": {}
}